:020000040800F2
:10000000F0A7002089810008AD040008AF040008B3
:10001000B1040008B3040008B504000800000000A3
:10002000000000000000000000000000B70400080D
:10003000B904000800000000BB040008BD0400086B
:10004000A3810008A3810008A3810008A381000800
:10005000A3810008A3810008A3810008A3810008F0
:10006000A3810008A3810008A3810008A3810008E0
:10007000A3810008A3810008A3810008A3810008D0
:10008000A3810008A3810008A3810008A3810008C0
:10009000A3810008A3810008A3810008A3810008B0
:1000A000A3810008A3810008A3810008A3810008A0
:1000B000F1DD0008A3810008197F0008A381000872
:1000C000A3810008A3810008A3810008A381000880
:1000D000A38100080D810008677C0008A381000847
:1000E000A3810008A3810008A3810008A381000860
:1000F000A3810008A3810008A3810008A381000850
:10010000A3810008A3810008A3810008A38100083F
:10011000A3810008A3810008A3810008A38100082F
:10012000A3810008A3810008A3810008A38100081F
:1001300000F002F800F0B0F80AA090E8000C824449
:100140008344AAF10107DA4501D100F0A5F8AFF226
:10015000090EBAE80F0013F0010F18BFFB1A43F0A5
:1001600001031847F85E0100185F01000A444FF0D0
:10017000000C10F8013B13F0070408BF10F8014B06
:100180001D1108BF10F8015B641E05D010F8016B4B
:10019000641E01F8016BF9D113F0080F1EBF10F8AF
:1001A000014BAD1C0C1B09D16D1E58BF01F801CBD2
:1001B000FAD505E014F8016B01F8016B6D1EF9D555
:1001C0009142D6D37047000000230024002500266A
:1001D000103A28BF78C1FBD8520728BF30C148BFAA
:1001E0000B6070476E2911F05187702911F06F85EF
:1001F000662913F0F486652913F0F186672913F058
:10020000EE866129AFF3008003681B0A28BF41F026
:100210008001692911F0E084642911F0DD847529D9
:1002200011F0DA846F2912F04980782911F03B85AA
:10023000E92911F0E387E42911F0E087F52911F0AD
:10024000DD87EF2912F04680F82911F03A8503681E
:10025000DB0928BF41F08001632911F0528773291F
:1002600011F05787E32912F09F82F32912F0A4823C
:10027000002070471FB512F0F9FA04000020002199
:1002800012F0C2FF401C60600020002112F0A6FFA7
:10029000E0601FBD10B510BD12F0BAFA1146FFF7AD
:1002A000E9FF00F009F812F093FB03B4FFF7F2FF47
:1002B00003BC07F0D3FE000070B582B007F0CAFEA1
:1002C00007F078FE4FF4E13007F0D2FE564841685F
:1002D0004820884701F090FD00F09EF900F0C6F933
:1002E0004FF4E13007F036FD504D2868804709F0A3
:1002F000F1FC09F0D3FD4E4C01224EA120680AF01A
:1003000085FF01224CA160680AF080FF002000F008
:10031000D6F90446012809D14FF6FF7001F01DFD02
:10032000A86880474FF6FF7001F017FD0DF077F8D1
:1003300008B9022C73D14FF6FF7001F00EFD3F4952
:100340004FF47840102408803DA0CDE900402346BA
:10035000C82232213C2005F0C7FA06F01FF84FF6FC
:10036000FF75D0B13AA0CDE900401023C822462144
:100370003C2005F0B9FAC82007F04CFE56234FF494
:10038000827246213C20009504F0E8FFC82007F067
:1003900041FE06F003F80028E4D131A0CDE9004089
:1003A0001023C82246213C2005F09EFA2FA0CDE95B
:1003B00000401023C8225A213C2005F095FA102253
:1003C0006E2114200CF0A0FF060017D02CA1CDE95F
:1003D00000411023C8226E213C2005F085FAC82078
:1003E00007F018FE7E23DC226E211420009504F015
:1003F000B5FFC82007F00EFE002EE7D125A0CDE9FD
:1004000000401023C8226E213C2005F06DFA40F216
:10041000DC5007F0FFFD4FF6FF7001F09EFC11F07D
:100420007FF902B0002070BD4402002028000020A7
:10043000A0000020303A0000313A000016000020F1
:10044000414C49454E54454B2053544D33320000E6
:1004500053442043617264204661696C65642100E5
:1004600053442043617264204F4B0000466F6E740A
:10047000205570646174696E672E2E2E0000000096
:10048000466F6E7420557064617465204661696CB6
:1004900065642100466F6E74205570646174652038
:1004A0005375636365737321000000007047FEE7B6
:1004B000FEE7FEE7FEE770477047704770470000B1
:1004C0004D4882B0016841F00101016042684B492A
:1004D00011404160016821F4102121F08071016018
:1004E000016821F480210160416821F4FE0141602E
:1004F0004FF41F018160002200920192016841F4D3
:1005000080310160016801F4003101910099491CBA
:100510000091019919B90099B1F5A06FF2D1016864
:1005200011F4003F08BF019233D0012101913449F9
:100530000A6842F010020A600A6822F003020A60A8
:100540000A6842F002020A60416841604168416005
:10055000416841F480614160416821F47C1141604F
:10056000416841F4E8114160016841F08071016027
:10057000016811F0007FFBD0416821F00301416068
:10058000416841F002014160416801F00C01082915
:10059000FAD11C494FF00060086002B07047164B5A
:1005A0005868194A194910F00C0018BF042801D0E6
:1005B000082801D00A6015E058685A6800F47010E5
:1005C0004FF0020C12F4803F0CEB904003D05A68BD
:1005D00012F4003F03D00E4A5043086002E00A4A7A
:1005E0005043086058680B4AC0F30310105C0A6857
:1005F00022FA00F008607047001002400000FFF887
:100600000020024008ED00E000127A000000002007
:1006100000093D000400002038B50121242008F025
:100620004BF84FF48070ADF8000010208DF80300F7
:1006300003200C4C8DF802006946204607F02FFE7F
:10064000A115204607F0A7FE0420074CADF80000D6
:100650006946204607F023FE0421204607F09BFE52
:1006600038BD0000000801400014014038B50121E8
:10067000142008F021F801213C4807F0ADFE4FF4AA
:100680000040ADF800003A4D48248DF8034069461B
:10069000284607F004FE2021ADF800108DF8034035
:1006A0006946344807F0FBFD0121ADF80010282110
:1006B0008DF803106946284607F0F1FD38BD2DE995
:1006C000F04101252C4C2B4F294E00280ABF2078E1
:1006D0002570002810D02021384607F048FE90B140
:1006E0004FF40041304607F042FE60B10121304630
:1006F00007F03DFE012806D02021384607F037FEDE
:10070000012830D121E00A2007F084FC002020706D
:100710002021384607F02BFE002804BF0120BDE849
:10072000F0814FF40041304607F021FE002804BF5D
:100730000220BDE8F0810121304607F018FE0128B3
:1007400004BF0320BDE8F0810DE04FF400413046C6
:1007500007F00DFE012806D10121304607F007FE03
:10076000002808BF25700020BDE8F081000230009D
:1007700000080140001001401400002070B505463B
:100780004FF48071FE4C204607F007FE61152046AD
:1007900007F003FE2946FB4807F006FE80212046AD
:1007A00007F0FBFD8021204607F0F5FD611520468E
:1007B000BDE8704007F0EFBD70B5F14C05464FF451
:1007C0008071204607F0E7FD6115204607F0E5FD42
:1007D0002946EC4807F0E8FD8021204607F0DDFDC2
:1007E0008021204607F0D7FD61152046BDE8704006
:1007F00007F0D1BD2DE9F041E24C4FF08830206088
:10080000251D2860E04E00203060DFF87483A115BC
:10081000404607F0C0FD6115404607F0BEFD40218F
:10082000404607F0BAFDD9488088A0F509418939CA
:1008300004BF022007F0D5FB204607F09FFD0746C6
:100840004021404607F0A7FD4FF40071404607F0F5
:10085000A2FD4FF03330206028604FF6FF7030600B
:100860003846BDE8F08170B50D46FFF787FFC44CF0
:100870004FF48071204607F08EFD6115204607F089
:100880008CFD2946BF4807F08FFD8021204607F0E8
:1008900084FD8021204607F07EFD61152046BDE8DD
:1008A000704007F078BD10B5FFF768FFBDE8104055
:1008B000A0E7B648008961E770B5B14C05464FF432
:1008C0008071204607F067FD6115204607F065FD41
:1008D0002946AC4807F068FD8021204607F05DFD01
:1008E0008021204607F057FD61152046BDE8704085
:1008F00007F051BDC0F34511C20AC00200EB411020
:10090000104480B270472DE9F047DFF8808204463A
:100910004246B8F804000D464FEA112A984E994F06
:100920005389A0F513414FEA142941391CBFA0F5A2
:10093000A041B1F544711CD09449A0F5D04C8A79FE
:100940000988091B491EBCF1040C7DD0A0F5A04C00
:10095000BCF5A26C00F0FC80012A08BF8CB22146D5
:100960001846FFF780FFB8F80C002946BDE8F047AD
:1009700079E71846FFF702FF4FF48071304607F021
:100980000AFD4FF40071304607F007FD494638462E
:1009900007F00AFD8021304607F0FFFC8021304639
:1009A00007F0F9FC4FF40071304607F0F4FC4FF407
:1009B0008071304607F0EFFC4FF40071304607F0CD
:1009C000ECFCE1B2384607F0EFFC8021304607F03E
:1009D000E4FC8021304607F0DEFC4FF40071304625
:1009E00007F0D9FCB8F80C00FFF7C8FE4FF480718F
:1009F000304607F0D0FC4FF40071304607F0CDFCD4
:100A00005146384607F0D0FC8021304607F0C5FC3F
:100A10008021304607F0BFFC4FF40071304607F0EC
:100A2000BAFC4FF48071304607F0B5FC4FF400710A
:100A3000304607F0B2FCE9B2384607F0B5FC802139
:100A4000304607F0AAFC00E00AE08021304607F0BB
:100A5000A2FC3046BDE8F0474FF4007107F09BBCA4
:100A6000012A08BF8CB21846FFF788FE4FF4807148
:100A7000304607F090FC4FF40071304607F08DFCD3
:100A8000210A384607F090FC8021304607F085FCAB
:100A90008021304607F07FFC4FF40071304607F0AC
:100AA0007AFC4FF48071304607F075FC4FF400710A
:100AB000304607F072FCE1B2384607F075FC802141
:100AC000304607F06AFC8021304607F064FC4FF4A2
:100AD0000071304607F05FFCB8F80C00FFF74EFEDF
:100AE0004FF48071304607F056FC4FF400713046E9
:100AF00007F053FC5146384607F056FC802130463B
:100B000007F04BFC8021304607F045FC4FF40071A4
:100B1000304607F040FC4FF48071304607F03BFC54
:100B20004FF40071304607F038FCE9B2384607F060
:100B30003BFC8021304607F030FC8021304607F036
:100B40002AFC3046BDE8F0474FF4007107F023BCA3
:100B50001846FFF713FE4FF48071304607F01BFC78
:100B60004FF40071304607F018FC4946384607F04C
:100B70001BFC8021304607F010FC8021304607E046
:100B800000100140000C01400C0C0140BC0300208F
:100B900007F001FC4FF40071304607F0FCFBB8F899
:100BA0000A00401C80B2FFF7E9FD4FF48071304627
:100BB00007F0F1FB4FF40071304607F0EEFBE1B2B5
:100BC000384607F0F1FB8021304607F0E6FB802134
:100BD000304607F0E0FB4FF40071304607F0DBFBD6
:100BE000B8F80C00FFF7CAFD4FF48071304607F0EB
:100BF000D2FB4FF40071304607F0CFFB5146384628
:100C000007F0D2FB8021304607F0C7FB8021304639
:100C100007F0C1FB4FF40071304607F0BCFBB8F899
:100C20000C00401C80B2FFF7A9FD4FF480713046E4
:100C300007F0B1FB4FF40071304607F0AEFBE9B2AC
:100C4000384607F0B1FB8021304607F0A6FB802133
:100C5000304607F0A0FB3046BDE8F0474FF4007186
:100C600007F099BB2DE9F84FDFF848A4BAF8002047
:100C7000824287BFBAF802208A420020BDE8F88F7E
:100C8000FFF741FEBAF8040045F21037A0F5134112
:100C900045F2105841391EBFA0F5D041B1F1040111
:100CA000B8424CD12E20FFF769FDDFF80CB44FF0AD
:100CB0008830CBF800000BF104010860FF484FF6C4
:100CC000FF79C0F80090FE4E8115304607F063FBB7
:100CD0007115304607F061FB4021304607F05DFB9F
:100CE000012007F07EF94021304607F054FB4021F7
:100CF000304607F052FB012007F073F9584607F021
:100D00003DFB04464021304607F045FBBAF804009D
:100D1000A0F5134141391CBFB842404517D14021CD
:100D2000304607F03AFB584607F028FB0090402178
:100D3000304607F030FBE0B209EA002517E04045F5
:100D40000CBF4FF438502220FFF718FDADE7A0F597
:100D5000D04104390BD14021304607F01EFB402121
:100D6000304607F018FB584607F008FB04464FF4DE
:100D70000071304607F00FFB4FF03330CBF8000026
:100D8000D0490860CD48C0F80090BAF80410A1F529
:100D9000134025381CBFA1F58A40B0F135001DD0A5
:100DA000A1F58A4031381FBFA1F50940B0F1890093
:100DB000A1F53540B0F1050010D0A1F51340413840
:100DC0001CBFB94241450CD104F47840A90A40EA5D
:100DD0004111009841EAD020BDE8F88F2046BDE8D7
:100DE000F88FC4F34510E20202EB401000EBD42070
:100DF00080B2BDE8F88FAF488088A0F51341413933
:100E00001FBFA0F5D041B1F10401A0F5A041B1F59B
:100E1000447107D0A0F5AA41103905D040F27311F2
:100E2000072020E52920A9E44FF42450A6E4A14896
:100E30008088A0F5134141391FBFA0F5D041B1F121
:100E40000401A0F5A041B1F5447106D0A0F5AA4176
:100E5000103904D00021072005E528208EE44FF446
:100E600020508BE42DE9F041924D00242946AB79C6
:100E7000898846F60402012B18D1914216D0082821
:100E800014D2DFE800F00406080A0C0E1012062047
:100E90000CE007200AE0042008E0052006E001201D
:100EA00004E0002002E0032000E00220A1F5134C42
:100EB00045F2103345F21056BCF1410C18BF914277
:100EC00004D0994218BFB14240F02582082812D2BE
:100ED000DFE800F0110406080A0C0E1080240AE076
:100EE000402408E0C02406E0202404E0602402E05E
:100EF000A02400E0E024B1420CBF4FF4585036204B
:100F000099421CBFB14244F00804914208BF44F02A
:100F100002042146FFF7A7FC14F0200F40F00C81DB
:100F2000A879012800F0088128886988884201D9B9
:100F300029806880A888624CB0425F4F688940F081
:100F40000181FFF71BFCA115204607F024FA61156B
:100F5000204607F022FA00213E46384607F024FAE0
:100F60008021204607F019FA8021204607F013FA65
:100F70006115204607F00FFA6889401C80B2FFF720
:100F8000FDFBA115204607F006FA6115204607F083
:100F900004FA0021304607F007FA8021204607F0C6
:100FA000FCF98021204607F0F6F96115204607F08C
:100FB000F2F96889801C80B2FFF7E0FBA11520469A
:100FC00007F0E9F96115204607F0E7F92888401E87
:100FD000C0F30F21304607F0E7F98021204607F0E3
:100FE000DCF98021204607F0D6F96115204607F08C
:100FF000D2F96889C01C80B2FFF7C0FBA11520465A
:1010000007F0C9F96115204607F0C7F92878401E96
:10101000C1B2304607F0C8F98021204607F0BDF97B
:101020008021204607F0B7F96115204607F0B3F993
:10103000A889FFF7A3FBA115204607F0ACF96115BD
:10104000204607F0AAF90021304607F0ADF98021CB
:10105000204607F0A2F98021204607F09CF961158F
:10106000204607F098F9A889401C80B2FFF786FB5C
:10107000A115204607F08FF96115204607F08DF97C
:101080000021304607F090F98021204607F085F9CD
:101090008021204607F07FF96115204607F07BF993
:1010A000A889801C80B2FFF769FBA115204607F0D4
:1010B00072F909E0BC030020000C01400C0C014057
:1010C00000100140040C01406115204607F065F94D
:1010D0006888401EC0F30F21304607F065F9802173
:1010E000204607F05AF98021204607F054F961158F
:1010F000204607F050F9A889C01C80B2FFF73EFBDC
:10110000A115204607F047F96115204607F045F97B
:10111000A878401EC1B2304607F046F9802120462B
:1011200007F03BF98021204607F035F9611520468C
:10113000BDE8F04107F02FB9288869888842BFF4DC
:10114000F9AEF5E6FFF71AFB4FF48071204607F081
:1011500022F94FF40071204607F01FF900213846AC
:1011600007F022F98021204607F017F98021204658
:1011700007F011F94FF40071204607F00CF94FF415
:101180008071204607F007F94FF40071204607F000
:1011900004F90021384607F007F98021204607F0BE
:1011A000FCF88021204607F0F6F84FF40071204645
:1011B00007F0F1F84FF48071204607F0ECF84FF497
:1011C0000071204607F0E9F82888401EC0F30F217F
:1011D000384607F0E9F88021204607F0DEF8802144
:1011E000204607F0D8F84FF40071204607F0D3F8F6
:1011F0004FF48071204607F0CEF84FF4007120467E
:1012000007F0CBF82878401EC1B2384607F0CCF87A
:101210008021204607F0C1F88021204607F0BBF866
:101220004FF40071204607F0B6F8A889FFF7A6FA38
:101230004FF48071204607F0AEF84FF4007120465D
:1012400007F0ABF80021384607F0AEF880212046C1
:1012500007F0A3F88021204607F09DF84FF40071B5
:10126000204607F098F84FF48071204607F093F875
:101270004FF40071204607F090F80021384607F03F
:1012800093F88021204607F088F88021204607F057
:1012900082F84FF40071204607F07DF84FF480711A
:1012A000204607F078F84FF40071204607F075F8F3
:1012B0006888401EC0F30F21384607F075F880217A
:1012C000204607F06AF88021204607F064F84FF4C2
:1012D0000071204607F05FF84FF48071204607F058
:1012E0005AF84FF40071204607F057F8A878401ECE
:1012F000C1B2384607F058F88021204607F04DF873
:101300008021204607F047F82046BDE8F0414FF421
:10131000007107F040B8082812D2DFE800F0040698
:1013200008110A0C0E1030240AE0102408E02024D2
:1013300006E0382404E0282402E0182400E0082411
:10134000A1F50940893803BF112046F2400121432D
:10135000032018BF44F48051BDE8F041FFF783BA81
:1013600010B5FFF7D0FAF8480089FFF707FAF74CF5
:101370004FF48071204607F00EF86115204607F003
:101380000CF8F349F348098807F00EF8802120464D
:1013900007F003F88021204606F0FDFF6115204686
:1013A000BDE8104006F0F7BF2DE9F05FE64E0D46B0
:1013B00004464FEA1029B18830469346E34FDFF8E0
:1013C00094834089A1F513424FEA152A413A1CBF84
:1013D000A1F5A042B2F5447250D0A1F5AA42103A4C
:1013E0007ED0D94AA1F5D04C93791288121B521E97
:1013F000BCF1040C00F03281012B08BF94B22146ED
:10140000FFF731FAB0892946FFF72DFA4FF48071C2
:10141000384606F0C2FF4FF40071384606F0BDFFB3
:101420003189404606F0C0FF8021384606F0B5FFFE
:101430008021384606F0AFFF4FF40071384606F0C1
:10144000AAFF4FF48071384606F0A5FF4FF40071F3
:10145000384606F0A2FF5946404606F0A5FF802117
:10146000384606F09AFF8021384606F094FF384649
:10147000BDE8F05F4FF4007106F08DBFFFF77EF915
:101480004FF48071384606F086FF4FF400713846FD
:1014900006F083FF4946404606F086FF8021384625
:1014A00006F07BFF8021384606F075FF4FF400718F
:1014B000384606F070FF4FF48071384606F06BFF37
:1014C0004FF40071384606F068FFE1B2404606F07E
:1014D0006BFF8021384606F060FF8021384600E02F
:1014E00040E006F058FF4FF40071384606F053FF15
:1014F000B089FFF743F94FF48071384606F04BFF8F
:101500004FF40071384606F048FF5146404606F059
:101510004BFF8021384606F040FF8021384606F018
:101520003AFF4FF40071384606F035FF4FF48071F2
:10153000384606F030FF4FF40071384606F02DFFB4
:10154000E9B2404606F030FF8021384606F025FF1C
:101550008021384606F01FFF4FF40071384606F030
:101560001AFF53E7FFF70AF94FF48071384606F087
:1015700012FF4FF40071384606F00FFF494640460F
:1015800006F012FF8021384606F007FF802138461A
:1015900006F001FF4FF40071384606F0FCFE70893A
:1015A000401C80B2FFF7EAF84FF48071384606F02D
:1015B000F2FE4FF40071384606F0EFFEE1B240460D
:1015C00006F0F2FE8021384606F0E7FE802138461C
:1015D00006F0E1FE4FF40071384606F0DCFEB089FB
:1015E000FFF7CCF84FF48071384606F0D4FE4FF484
:1015F0000071384606F0D1FE5146404606F0D4FE52
:101600008021384606F0C9FE8021384606F0C3FE28
:101610004FF40071384606F0BEFEB089401C80B21F
:10162000FFF7ACF84FF48071384606F0B4FE4FF483
:101630000071384606F0B1FEE9B2404606F0B4FE4D
:101640008021384606F0A9FE8021384606F0A3FE28
:101650004FF40071384606F09EFED7E6012B08BF16
:1016600094B2FFF78BF84FF48071384606F093FE82
:101670004FF40071384606F090FE210A404606F00D
:1016800093FE8021384606F088FE8021384606F019
:1016900082FE4FF40071384606F07DFE4FF48071F3
:1016A000384606F078FE4FF40071384606F075FEB5
:1016B000E1B2404606F078FE8021384606F06DFE25
:1016C0008021384606F067FE4FF40071384606F078
:1016D00062FEB089FFF752F84FF48071384606F089
:1016E0005AFE4FF40071384606F057FE5146404608
:1016F00006F05AFE8021384606F04FFE802138461B
:1017000006F049FE4FF40071384606F044FE4FF4EF
:101710008071384606F03FFE4FF40071384606F0FF
:101720003CFEE9B2404606F03FFE8021384606F016
:1017300034FE8021384606F02EFE4FF40071384604
:1017400006F029FE62E60000BC0300200010014004
:1017500016000020000C01402DE9F05F2A242B2503
:1017600022224FF02C0C48F689164E274FF04F08D6
:101770004FF42C5E4FF020094FF0F00A49F2413B44
:10178000FE498988F8B1FD480123594583714FF41A
:10179000A0730380A0F802A01CBFA1F5A04ABAF56F
:1017A000447A0BD0A1F5D04ABAF1040A4FD0B14225
:1017B00052D10281A0F80A80878157E0A0F808C0C2
:1017C0004481858152E0ED4B002059459871A3F882
:1017D00000A04FF4A07058801FBFA1F5D04ABAF105
:1017E000040AA1F5A04ABAF5447A06D0B14215D14F
:1017F0001A815F81A3F80C8055E0A3F808C05C81D2
:10180000A1F5D0429D81043A19BFA1F5A042B2F5DD
:10181000447218804FF4F07045D116E0A1F5AA404B
:10182000103805D01A81A3F80A90212098813AE057
:101830004FF4305018814FF428505881A3F80CE031
:101840004FF4F07018804FF4487058802BE0A0F8E7
:1018500008C04581848109E0A1F5A04CBCF5A26CCB
:101860000ED0028121224281A0F80C90A1F5D04235
:10187000043A1CBFA1F5A042B2F5447213D10EE0A8
:101880004FF4305202814FF428524281A0F80CE00C
:101890004FF4487202804FF4F0724280E6E74FF452
:1018A000F07101804380BDE8F05F0020FFF7DABAF5
:1018B0002DE9F84F07461044401E85B2C818DFF8DE
:1018C000BC82401E84B20E46B8F80400090A00919A
:1018D0004146DFF8AC92DFF8ACA24989A0F513428B
:1018E0004FEA172B413A1FBFA0F5A042B2F5447250
:1018F000A0F5D042B2F104022CD0A0F5AA42103AD1
:1019000000F0098198F80610012900F01B82A94611
:1019100039463546A0F50942893A00F00882502040
:101920004FF0510B4FF0520A4FF05308FEF79BFF58
:1019300049465846FEF797FF29465046FEF793FF63
:1019400021464046FEF78FFF31463846BDE8F84F46
:10195000FEF7D9BF0846FEF711FF4FF480714846E5
:1019600006F019FD4FF40071484606F016FD594681
:10197000504606F019FD8021484606F00EFD8021F4
:10198000484606F008FD4FF40071484606F003FD96
:101990004FF48071484606F0FEFC4FF40071484653
:1019A00006F0FBFCF9B2504606F0FEFC80214846EA
:1019B00006F0F3FC8021484606F0EDFC4FF4007180
:1019C000484606F0E8FC4FF48071484606F0E3FC18
:1019D0004FF40071484606F0E0FC290A504606F034
:1019E000E3FC8021484606F0D8FC8021484606F0FA
:1019F000D2FC4FF40071484606F0CDFC4FF48071E4
:101A0000484606F0C8FC4FF40071484606F0C5FC95
:101A1000E9B2504606F0C8FC8021484606F0BDFCFD
:101A20008021484606F0B7FC4FF40071484606F0A6
:101A3000B2FCB8F80C00FEF7A1FE4FF480714846E6
:101A400006F0A9FC4FF40071484606F0A6FC50468B
:101A5000009906F0A9FC8021484606F09EFC8021F2
:101A6000484606F098FC4FF40071484606F093FC97
:101A70004FF48071484606F08EFC4FF400714846E2
:101A800006F08BFCF1B2504606F08EFC80214846F1
:101A900006F083FC8021484606F07DFC4FF400717F
:101AA000484606F078FC4FF48071484606F073FC17
:101AB0004FF40071484606F070FC210A504606F0CB
:101AC00073FC8021484606F068FC8021484606F0F9
:101AD00062FC4FF40071484606F05DFC4FF48071E3
:101AE000484606F058FC4FF40071484606F055FC95
:101AF000E1B2504606F058FC8021484606F04DFC05
:101B00008021484606F047FC4846BDE8F84F4FF4B0
:101B1000007106F040BC0846FEF730FE4FF48071BD
:101B2000484606F038FC4FF40071484606F035FC94
:101B30005946504606F038FC8021484606F02DFCF8
:101B40008021484606F027FC4FF40071484606F015
:101B500022FCB8F80A00401C80B2FEF70FFE4FF4DA
:101B60008071484606F017FC4FF40071484606F0B5
:101B700014FCF9B2504606F017FC05E0BC03002047
:101B800000100140000C01408021484606F005FC91
:101B90008021484606F0FFFB4FF40071484606F0EE
:101BA000FAFBB8F80A00801C80B2FEF7E7FD4FF49C
:101BB0008071484606F0EFFB4FF40071484606F08E
:101BC000ECFB290A504606F0EFFB8021484606F060
:101BD000E4FB8021484606F0DEFB4FF400714846E6
:101BE00006F0D9FBB8F80A00C01C80B2FEF7C6FDAB
:101BF0004FF48071484606F0CEFB4FF40071484622
:101C000006F0CBFBE9B2504606F0CEFB80214846F9
:101C100006F0C3FB8021484606F0BDFB4FF400717F
:101C2000484606F0B8FBB8F80C00FEF7A7FD4FF4E5
:101C30008071484606F0AFFB4FF40071484606F04D
:101C4000ACFB5046009906F0AFFB8021484606F0F9
:101C5000A4FB8021484606F09EFB4FF400714846E5
:101C600006F099FBB8F80C00401C80B2FEF786FD28
:101C70004FF48071484606F08EFB4FF400714846E1
:101C800006F08BFBF1B2504606F08EFB80214846F1
:101C900006F083FB8021484606F07DFB4FF400717F
:101CA000484606F078FBB8F80C00801C80B2FEF7BE
:101CB00065FD4FF48071484606F06DFB4FF40071EE
:101CC000484606F06AFB210A504606F06DFB80216B
:101CD000484606F062FB8021484606F05CFB4FF464
:101CE0000071484606F057FBB8F80C00C01C80B2E3
:101CF000FEF744FD4FF48071484606F04CFB4FF46C
:101D00000071484606F049FBE1B2504606F04CFB34
:101D10008021484606F041FB8021484606F03BFB07
:101D20004846BDE8F84F4FF4007106F034BB41EA75
:101D30000921442089B2834689464FF0450A4FF075
:101D40004608F3E5B8F80020A146531B5B1ED21BE2
:101D5000521E31469DB294B2DCE52DE9F047FF4EAC
:101D6000804600243088718801FB00F5B088A0F51A
:101D7000D041043904BFB07901282CD00021084695
:101D8000FEF7C1FD3089FEF7F9FC002D86BFF44E49
:101D9000F44FBDE8F0874FF48071304606F0FBFA4F
:101DA0004FF40071304606F0F8FA4146384606F026
:101DB000FBFA8021304606F0F0FA8021304606F02A
:101DC000EAFA4FF40071304606F0E5FA641CA542C9
:101DD000E1D8BDE8F0870020B0714FF02A09A6F8DD
:101DE0000A902B27B7810146FEF78DFD0120B071C7
:101DF0007781A6F80C90C5E72DE9F8430121192059
:101E000006F05AFC0121D84806F0E6FA4FF4F860D3
:101E1000ADF8000010208DF803000320D04C8DF8A1
:101E200002006946204606F03AFA4FF4F86120466F
:101E300006F0B1FACB4C4FF6FF79ADF80090694649
:101E4000204606F02CFA4946204606F0A4FA322035
:101E500006F0E0F801210020FEF705FD322006F033
:101E6000D9F80020FEF78AFCFEF7C4FCBB4C49F20F
:101E7000413546F60406A08045F2103745F2105869
:101E8000FF2804D3484518BFB0F5134F57D1D320CE
:101E9000FEF774FCFEF7AEFCFEF7ACFCFEF7AAFC06
:101EA00009EA0020A080FEF7A5FCA1880843A080D5
:101EB000A84244D0BF20FEF761FCFEF79BFCFEF772
:101EC00099FCFEF797FCFEF795FC09EA0020A0803C
:101ED000FEF790FCA1880843A080B0422FD0D42008
:101EE000FEF74CFCFEF786FCFEF784FCFEF782FC56
:101EF00009EA0020A080FEF77DFCA1880843A080AD
:101F0000B8421CD04FF45A40FEF738FCFEF772FC82
:101F10004FF45B40FEF732FCFEF76CFC09EA002050
:101F2000A0804FF45C40FEF729FCFEF763FCA1881B
:101F30000843A080B0F5004F08BFA4F80480A18832
:101F40008AA00FF0D7FDA088A84240F02781CF20BB
:101F5000FEF714FC0020FEF72FFCC120FEF72CFC3E
:101F60003020FEF729FCED20FEF708FC6420FEF788
:101F700023FC0320FEF720FC1220FEF71DFC81202D
:101F8000FEF71AFCE820FEF7F9FB8520FEF714FCAB
:101F90001020FEF711FC7A20FEF70EFCCB20FEF796
:101FA000EDFB3920FEF708FC2C20FEF705FC002095
:101FB000FEF702FC3420FEF7FFFB0220FEF7FCFBDD
:101FC000F720FEF7DBFB2020FEF7F6FBEA20FEF70A
:101FD000D5FB0020FEF7F0FB0020FEF7EDFBC02054
:101FE000FEF7CCFB1B20FEF7E7FBC120FEF7C6FB8C
:101FF0000120FEF7E1FBC520FEF7C0FB3020FEF715
:10200000DBFB3020FEF7D8FBC720FEF7B7FBB7207D
:10201000FEF7D2FB3620FEF7B1FB4820FEF7CCFBE3
:102020003A20FEF7ABFB5520FEF7C6FBB120FEF7CA
:10203000A5FB0020FEF7C0FB1A20FEF7BDFBB62073
:10204000FEF79CFB0A20FEF7B7FBA220FEF7B4FBCD
:10205000F220FEF793FB0020FEF7AEFB2620FEF7F2
:102060008DFB0120FEF7A8FBE020FEF787FB0F2089
:10207000FEF7A2FB2A20FEF79FFB2820FEF79CFB21
:102080000820FEF799FB0E20FEF796FB0820FEF7CE
:1020900093FB5420FEF790FBA920FEF78DFB432015
:1020A000FEF78AFB0A20FEF787FB0F20FEF784FB72
:1020B0000020FEF781FB0020FEF77EFB0020FEF7EC
:1020C0007BFB0020FEF778FBE120FEF757FB0020AA
:1020D000FEF772FB1520FEF76FFB1720FEF76CFB77
:1020E0000720FEF769FB1120FEF766FB0620FEF7CE
:1020F00063FB2B20FEF760FB5620FEF75DFB3C20C8
:10210000FEF75AFB0520FEF757FB1020FEF754FBA5
:102110000F20FEF751FB3F20FEF74EFB3F20FEF75E
:102120004BFB0F20FEF748FB2B20FEF727FB002080
:10213000FEF742FB0020FEF73FFB0120FEF73CFBD1
:102140003F20FEF739FB2A20FEF718FB0020FEF7A0
:1021500033FB0020FEF730FB00200FE0BC03002023
:1021600000100140000C014000023000204C4344AC
:102170002049443A25780D0A00000000FEF71CFBB8
:10218000EF20FEF719FB1120FEF7F8FA782005F092
:1021900041FF2920FEF7F2FA02F0E1BCB0427CD107
:1021A0001120FEF7EBFA142005F034FFD020FEF7E3
:1021B000E5FA0720FEF700FB4220FEF7FDFA1D209E
:1021C000FEF7FAFAD120FEF7D9FA0020FEF7F4FA6A
:1021D0001A20FEF7F1FA0920FEF7EEFAD220FEF7F8
:1021E000CDFA0120FEF7E8FA2220FEF7E5FAC0203A
:1021F000FEF7C4FA1020FEF7DFFA3B20FEF7DCFA08
:102200000020FEF7D9FA0220FEF7D6FA1120FEF7D9
:10221000D3FAC520FEF7B2FA0320FEF7CDFAC820A4
:10222000FEF7ACFA0020FEF7C7FA2520FEF7C4FA45
:102230002120FEF7C1FA0520FEF7BEFA0020FEF7C6
:10224000BBFA0A20FEF7B8FA6520FEF7B5FA25209A
:10225000FEF7B2FA7720FEF7AFFA5020FEF7ACFA9D
:102260000F20FEF7A9FA0020FEF7A6FAF820FEF7E5
:1022700085FA0120FEF7A0FAFE20FEF77FFA002083
:10228000FEF79AFA0220FEF797FA2020FEF776FA78
:102290003620FEF773FA082000E02DE0FEF78CFAF6
:1022A0003A20FEF76BFA5520FEF786FA2B20FEF750
:1022B00065FA0020FEF780FA0020FEF77DFA012083
:1022C000FEF77AFA3F20FEF777FA2A20FEF756FA51
:1022D0000020FEF771FA0020FEF76EFA0120FEF7EB
:1022E0006BFADF20FEF768FA782005F093FE2920CC
:1022F000FEF744FA02F033BCB84240F07787ED2095
:10230000FEF73CFA0120FEF757FAFE20FEF754FADA
:10231000EE20FEF733FADE20FEF74EFA2120FEF71C
:102320004BFAF120FEF72AFA0120FEF745FADF20EA
:10233000FEF724FA1020FEF73FFAC420FEF71EFA3B
:102340008F20FEF739FAC620FEF718FA0020FEF7B4
:1023500033FAE220FEF730FAE220FEF72DFAE2200F
:10236000FEF72AFABF20FEF709FAAA20FEF724FAA0
:10237000B020FEF703FA0D20FEF71EFA0020FEF74C
:102380001BFA0D20FEF718FA0020FEF715FA1120AF
:10239000FEF712FA0020FEF70FFA1920FEF70CFAEA
:1023A0000020FEF709FA2120FEF706FA0020FEF7CA
:1023B00003FA2D20FEF700FA0020FEF7FDF93D207C
:1023C000FEF7FAF90020FEF7F7F95D20FEF7F4F9C1
:1023D0000020FEF7F1F95D20FEF7EEF90020FEF790
:1023E000EBF9B120FEF7CAF98020FEF7E5F90020ED
:1023F000FEF7E2F98B20FEF7DFF90020FEF7DCF9AB
:102400009620FEF7D9F90020FEF7D6F9B220FEF7A4
:10241000B5F90020FEF7D0F90020FEF7CDF9022033
:10242000FEF7CAF90020FEF7C7F90320FEF7C4F94A
:102430000020FEF7C1F9B320FEF7A0F90020FEF757
:10244000BBF90020FEF7B8F90020FEF7B5F900202F
:10245000FEF7B2F90020FEF7AFF90020FEF7ACF965
:102460000020FEF7A9F90020FEF7A6F90020FEF7EC
:10247000A3F90020FEF7A0F90020FEF79DF9002047
:10248000FEF79AF90020FEF797F90020FEF794F97D
:102490000020FEF791F90020FEF78EF90020FEF7EC
:1024A0008BF90020FEF788F90020FEF785F900205F
:1024B000FEF782F90020FEF77FF90020FEF77CF995
:1024C0000020FEF779F90020FEF776F9B420FEF738
:1024D00055F98B20FEF770F90020FEF76DF9962074
:1024E000FEF76AF90020FEF767F9A120FEF764F90C
:1024F0000020FEF761F9B520FEF740F90220FEF753
:102500005BF90020FEF758F90320FEF755F900208B
:10251000FEF752F90420FEF74FF90020FEF74CF9C0
:10252000B620FEF72BF90020FEF746F90020FEF753
:1025300043F9B720FEF722F90020FEF73DF900200D
:10254000FEF73AF93F20FEF737F90020FEF734F99D
:102550005E20FEF731F90020FEF72EF96420FEF729
:102560002BF90020FEF728F98C20FEF725F9002032
:10257000FEF722F9AC20FEF71FF90020FEF71CF948
:10258000DC20FEF719F90020FEF716F97020FEF79F
:1025900013F90020FEF710F99020FEF70DF9002046
:1025A000FEF70AF9EB20FEF707F90020FEF704F921
:1025B000DC20FEF701F90020FEF7FEF8B820FEF758
:1025C000DDF80020FEF7F8F80020FEF7F5F800200F
:1025D000FEF7F2F80020FEF7EFF80020FEF7ECF827
:1025E0000020FEF7E9F80020FEF7E6F80020FEF7ED
:1025F000E3F8BA20FEF7C2F82420FEF7DDF8002049
:10260000FEF7DAF80020FEF7D7F80020FEF7D4F83E
:10261000C120FEF7B3F82020FEF7CEF80020FEF729
:10262000CBF85420FEF7C8F80020FEF7C5F8FF20CD
:10263000FEF7C2F80020FEF7BFF8C220FEF79EF8B2
:102640000A20FEF7B9F80020FEF7B6F80420FEF7DE
:10265000B3F80020FEF7B0F8C320FEF78FF83C2057
:10266000FEF7AAF80020FEF7A7F83A20FEF7A4F834
:102670000020FEF7A1F83920FEF79EF80020FEF7B3
:102680009BF83720FEF798F80020FEF795F83C20DD
:10269000FEF792F80020FEF78FF83620FEF78CF850
:1026A0000020FEF789F83220FEF786F80020FEF7BA
:1026B00083F82F20FEF780F80020FEF77DF82C200D
:1026C000FEF77AF80020FEF777F82920FEF774F875
:1026D0000020FEF771F82620FEF76EF80020FEF7C6
:1026E0006BF82420FEF768F80020FEF765F8242038
:1026F000FEF762F80020FEF75FF82320FEF75CF893
:102700000020FEF759F83C20FEF756F80020FEF7AF
:1027100053F83620FEF750F80020FEF74DF832202F
:10272000FEF74AF80020FEF747F82F20FEF744F89E
:102730000020FEF741F82C20FEF73EF80020FEF7BF
:102740003BF82920FEF738F80020FEF735F8262060
:10275000FEF732F80020FEF72FF82420FEF72CF8C1
:102760000020FEF729F82420FEF726F80020FEF7C7
:1027700023F82320FEF720F80020FEF71DF8C420E0
:10278000FDF7FCFF6220FEF717F80020FEF714F8B3
:102790000520FEF711F80020FEF70EF88420FEF762
:1027A0000BF80020FEF708F8F020FEF705F80020EF
:1027B000FEF702F81820FDF7FFFF0020FDF7FCFFF1
:1027C000A420FDF7F9FF0020FDF7F6FF1820FDF724
:1027D000F3FF0020FDF7F0FF5020FDF7EDFF002094
:1027E000FDF7EAFF0C20FDF7E7FF0020FDF7E4FF0F
:1027F0001720FDF7E1FF0020FDF7DEFF9520FDF734
:10280000DBFF0020FDF7D8FFF320FDF7D5FF002008
:10281000FDF7D2FFE620FDF7CFFF0020FDF7CCFF4C
:10282000C520FDF7ABFF3220FDF7C6FF0020FDF706
:10283000C3FF4420FDF7C0FF0020FDF7BDFF65206A
:10284000FDF7BAFF0020FDF7B7FF7620FDF7B4FFD4
:102850000020FDF7B1FF8820FDF7AEFF0020FDF757
:10286000ABFFC620FDF78AFF2020FDF7A5FF002063
:10287000FDF7A2FF1720FDF79FFF0020FDF79CFF4B
:102880000120FDF799FF0020FDF796FFC720FDF717
:1028900075FF0020FDF790FF0020FDF78DFF002061
:1028A000FDF78AFF0020FDF787FFC820FDF766FFD0
:1028B0000020FDF781FF0020FDF77EFF0020FDF7DF
:1028C0007BFF0020FDF778FFC920FDF757FF0020B0
:1028D000FDF772FF0020FDF76FFF0020FDF76CFF92
:1028E0000020FDF769FF0020FDF766FF0020FDF7DF
:1028F00063FF0020FDF760FF0020FDF75DFF002073
:10290000FDF75AFF0020FDF757FF0020FDF754FFA9
:102910000020FDF751FF0020FDF74EFF0020FDF7DE
:102920004BFF0020FDF748FF0020FDF745FFE020AA
:10293000FDF724FF1620FDF73FFF0020FDF73CFFC9
:102940001C20FDF739FF0020FDF736FF2120FDF7A1
:1029500033FF0020FDF730FF3620FDF72DFF00206C
:10296000FDF72AFF4620FDF727FF0020FDF724FF93
:102970005220FDF721FF0020FDF71EFF6420FDF728
:102980001BFF0020FDF718FF7A20FDF715FF002040
:10299000FDF712FF8B20FDF70FFF0020FDF70CFF66
:1029A0009920FDF709FF0020FDF706FFA820FDF79D
:1029B00003FF0020FDF700FFB920FDF7FDFE00201A
:1029C000FDF7FAFEC420FDF7F7FE0020FDF7F4FE48
:1029D000CA20FDF7F1FE0020FDF7EEFED220FDF744
:1029E000EBFE0020FDF7E8FED920FDF7E5FE002014
:1029F000FDF7E2FEE020FDF7DFFE0020FDF7DCFE44
:102A0000F320FDF7D9FE0020FDF7D6FEE120FDF70B
:102A1000B5FE1620FDF7D0FE0020FDF7CDFE1C20F0
:102A2000FDF7CAFE0020FDF7C7FE2220FDF7C4FE19
:102A30000020FDF7C1FE3620FDF7BEFE0020FDF7A9
:102A4000BBFE4520FDF7B8FE0020FDF7B5FE522085
:102A5000FDF7B2FE0020FDF7AFFE6420FDF7ACFEEF
:102A60000020FDF7A9FE7A20FDF7A6FE0020FDF765
:102A7000A3FE8B20FDF7A0FE0020FDF79DFE992010
:102A8000FDF79AFE0020FDF797FEA820FDF794FEC3
:102A90000020FDF791FEB920FDF78EFE0020FDF726
:102AA0008BFEC420FDF788FE0020FDF785FECA20BE
:102AB000FDF782FE0020FDF77FFED220FDF77CFEB1
:102AC0000020FDF779FED820FDF776FE0020FDF707
:102AD00073FEE020FDF770FE0020FDF76DFEF32091
:102AE000FDF76AFE0020FDF767FEE220FDF746FED7
:102AF0000520FDF761FE0020FDF75EFE0B20FDF7CF
:102B00005BFE0020FDF758FE1B20FDF755FE002060
:102B1000FDF752FE3420FDF74FFE0020FDF74CFE7E
:102B20004420FDF749FE0020FDF746FE4F20FDF74B
:102B300043FE0020FDF740FE6120FDF73DFE002032
:102B4000FDF73AFE7920FDF737FE0020FDF734FE51
:102B50008820FDF731FE0020FDF72EFE9720FDF7BF
:102B60002BFE0020FDF728FEA620FDF725FE002005
:102B7000FDF722FEB720FDF71FFE0020FDF71CFE2B
:102B8000C220FDF719FE0020FDF716FEC720FDF755
:102B900013FE0020FDF710FED120FDF70DFE0020F2
:102BA000FDF70AFED620FDF707FE0020FDF704FE24
:102BB000DD20FDF701FE0020FDF7FEFDF320FDF70F
:102BC000FBFD0020FDF7F8FDE320FDF7D7FD052014
:102BD000FDF7F2FD0020FDF7EFFD0A20FDF7ECFD0B
:102BE0000020FDF7E9FD1C20FDF7E6FD0020FDF7C4
:102BF000E3FD3320FDF7E0FD0020FDF7DDFD44207F
:102C0000FDF7DAFD0020FDF7D7FD5020FDF7D4FDDC
:102C10000020FDF7D1FD6220FDF7CEFD0020FDF77D
:102C2000CBFD7820FDF7C8FD0020FDF7C5FD88200D
:102C3000FDF7C2FD0020FDF7BFFD9720FDF7BCFDAD
:102C40000020FDF7B9FDA620FDF7B6FD0020FDF739
:102C5000B3FDB720FDF7B0FD0020FDF7ADFDC220AC
:102C6000FDF7AAFD0020FDF7A7FDC720FDF7A4FD95
:102C70000020FDF7A1FDD120FDF79EFD0020FDF70E
:102C80009BFDD520FDF798FD0020FDF795FDDD208B
:102C9000FDF792FD0020FDF78FFDF320FDF78CFD81
:102CA0000020FDF789FDE420FDF768FD0120FDF718
:102CB00083FD0020FDF780FD0120FDF77DFD002054
:102CC000FDF77AFD0220FDF777FD0020FDF774FD8A
:102CD0002A20FDF771FD0020FDF76EFD3C20FDF779
:102CE0006BFD0020FDF768FD4B20FDF765FD002022
:102CF000FDF762FD5D20FDF75FFD0020FDF75CFD47
:102D00007420FDF759FD0020FDF756FD8420FDF7E6
:102D100053FD0020FDF750FD9320FDF74DFD0020F1
:102D2000FDF74AFDA220FDF747FD0020FDF744FD19
:102D3000B320FDF741FD0020FDF73EFDBE20FDF76D
:102D40003BFD0020FDF738FDC420FDF735FD0020D8
:102D5000FDF732FDCD20FDF72FFD0020FDF72CFD06
:102D6000D320FDF729FD0020FDF726FDDD20FDF72E
:102D700023FD0020FDF720FDF320FDF71DFD0020C1
:102D8000FDF71AFDE520FDF7F9FC0020FDF714FD25
:102D90000020FDF711FD0020FDF70EFD0020FDF7DE
:102DA0000BFD0220FDF708FD0020FDF705FD2920A1
:102DB000FDF702FD0020FDF7FFFC3C20FDF7FCFCC9
:102DC0000020FDF7F9FC4B20FDF7F6FC0020FDF795
:102DD000F3FC5D20FDF7F0FC0020FDF7EDFC742016
:102DE000FDF7EAFC0020FDF7E7FC8420FDF7E4FC9A
:102DF0000020FDF7E1FC9320FDF7DEFC0020FDF74D
:102E0000DBFCA220FDF7D8FC0020FDF7D5FCB320A9
:102E1000FDF7D2FC0020FDF7CFFCBE20FDF7CCFC77
:102E20000020FDF7C9FCC420FDF7C6FC0020FDF71B
:102E3000C3FCCD20FDF7C0FC0020FDF7BDFCD32076
:102E4000FDF7BAFC0020FDF7B7FCDC20FDF7B4FC71
:102E50000020FDF7B1FCF320FDF7AEFC0020FDF7EC
:102E6000ABFCE620FDF78AFC1120FDF7A5FC002055
:102E7000FDF7A2FC3420FDF79FFC0020FDF79CFC31
:102E80005620FDF799FC0020FDF796FC7620FDF713
:102E900093FC0020FDF790FC7720FDF78DFC0020CF
:102EA000FDF78AFC6620FDF787FC0020FDF784FC17
:102EB0008820FDF781FC0020FDF77EFC9920FDF7BE
:102EC0007BFC0020FDF778FCBB20FDF775FC0020A3
:102ED000FDF772FC9920FDF76FFC0020FDF76CFCFC
:102EE0006620FDF769FC0020FDF766FC5520FDF724
:102EF00063FC0020FDF760FC5520FDF75DFC002021
:102F0000FDF75AFC4520FDF757FC0020FDF754FC67
:102F10004320FDF751FC0020FDF74EFC4420FDF757
:102F20004BFC0020FDF748FCE720FDF727FC322092
:102F3000FDF742FC0020FDF73FFC5520FDF73CFC6F
:102F40000020FDF739FC7620FDF736FC0020FDF768
:102F500033FC6620FDF730FC0020FDF72DFC6720D8
:102F6000FDF72AFC0020FDF727FC6720FDF724FC75
:102F70000020FDF721FC8720FDF71EFC0020FDF757
:102F80001BFC9920FDF718FC0020FDF715FCBB2069
:102F9000FDF712FC0020FDF70FFC9920FDF70CFC5B
:102FA0000020FDF709FC7720FDF706FC0020FDF767
:102FB00003FC4420FDF700FC0020FDF7FDFB56203C
:102FC000FDF7FAFB0020FDF7F7FB2320FDF7F4FBEC
:102FD0000020FDF7F1FB3320FDF7EEFB0020FDF7AD
:102FE000EBFB4520FDF7E8FB0020FDF7E5FBE820C3
:102FF000FDF7C4FB0020FDF7DFFB0020FDF7DCFB45
:103000009920FDF7D9FB0020FDF7D6FB8720FDF7BF
:10301000D3FB0020FDF7D0FB8820FDF7CDFB00207F
:10302000FDF7CAFB7720FDF7C7FB0020FDF7C4FBC7
:103030006620FDF7C1FB0020FDF7BEFB8820FDF7F1
:10304000BBFB0020FDF7B8FBAA20FDF7B5FB002075
:10305000FDF7B2FBBB20FDF7AFFB0020FDF7ACFB9B
:103060009920FDF7A9FB0020FDF7A6FB6620FDF7E0
:10307000A3FB0020FDF7A0FB5520FDF79DFB0020E2
:10308000FDF79AFB5520FDF797FB0020FDF794FB19
:103090004420FDF791FB0020FDF78EFB4420FDF757
:1030A0008BFB0020FDF788FB5520FDF785FB0020FA
:1030B000FDF782FBE920FDF761FBAA20FDF77CFB11
:1030C0000020FDF779FB0020FDF776FB0020FDF7DF
:1030D00073FB0020FDF752FBAA20FDF76DFBCF200C
:1030E000FDF74CFB0020FDF767FB0020FDF764FBBC
:1030F0000020FDF761FB0020FDF75EFB0020FDF7DF
:103100005BFB0020FDF758FB0020FDF755FB00207E
:10311000FDF752FB0020FDF74FFB0020FDF74CFBB5
:103120000020FDF749FB0020FDF746FB0020FDF7DE
:1031300043FB0020FDF740FB0020FDF73DFB002096
:10314000FDF73AFB0020FDF737FBF020FDF716FBFB
:103150000020FDF731FB5020FDF72EFB0020FDF78E
:103160002BFB0020FDF728FB0020FDF725FBF320BB
:10317000FDF704FB0020FDF71FFBF920FDF7FEFA29
:103180000620FDF719FB1020FDF716FB2920FDF79F
:1031900013FB0020FDF710FB3A20FDF7EFFA552056
:1031A000FDF70AFB1120FDF7E9FA642004F032FF75
:1031B0002920FDF7E3FA3520FDF7E0FA0020FDF7BE
:1031C000FBFA5120FDF7DAFAFF20FDF7F5FA53205C
:1031D000FDF7D4FA2C20FDF7EFFA5520FDF7CEFAD3
:1031E0008220FDF7E9FA2C2000F07DBF404540F039
:1031F0007E8755214FF47040FDF735FBAA214FF231
:103200000100FDF730FB52214FF20200FDF72BFBCE
:1032100008214FF20300FDF726FB01214FF20400C5
:10322000FDF721FB0D214FF43040FDF71CFB0D2174
:103230004BF20100FDF717FB0D214BF20200FDF7E9
:1032400012FB34214FF43640FDF70DFB34214BF2D5
:103250000160FDF708FB34214BF20260FDF703FB30
:103260000D214FF43140FDF7FEFA0D214BF2011014
:10327000FDF7F9FA0D214BF20210FDF7F4FA3421B3
:103280004FF43740FDF7EFFA34214BF20170FDF7B0
:10329000EAFA34214BF20270FDF7E5FA00214FF40F
:1032A0003240FDF7E0FA00214BF20120FDF7DBFA96
:1032B00000214BF20220FDF7D6FA24214FF43840CA
:1032C000FDF7D1FA24214BF60100FDF7CCFA2421B9
:1032D0004BF60200FDF7C7FA01214FF43F40FDF71E
:1032E000C2FA0F214FF43340FDF7BDFA0F214BF224
:1032F0000130FDF7B8FA0F214BF20230FDF7B3FAB7
:1033000034214FF43940FDF7AEFA34214BF6011069
:10331000FDF7A9FA34214BF60210FDF7A4FA0821B3
:103320004FF43540FDF79FFA08214BF20150FDF7AD
:103330009AFA08214BF20250FDF795FA03214FF457
:103340004240FDF790FA24214FF43A40FDF78BFA02
:1033500024214BF60120FDF786FA24214BF60220AA
:10336000FDF781FA00214FF43C40FDF77CFA78210B
:103370004BF60140FDF777FA00214BF60240FDF7CE
:1033800072FA00214FF43D40FDF76DFA78214BF6BB
:103390000150FDF768FA00214BF60250FDF763FA81
:1033A00000214FF43E40FDF75EFA64214BF60160C8
:1033B000FDF759FA00214FF45140FDF754FA33213B
:1033C0004DF20110FDF74FFA00214DF20210FDF70A
:1033D0004AFA34214DF20310FDF745FA00214DF26F
:1033E0000410FDF740FA3A214DF20510FDF73BFAC3
:1033F00000214DF20610FDF736FA4A214DF2071072
:10340000FDF731FA00214DF20810FDF72CFA5C218E
:103410004DF20910FDF727FA00214DF20A10FDF7D1
:1034200022FA81214DF20B10FDF71DFA00214DF219
:103430000C10FDF718FAA6214DF20D10FDF713FA46
:1034400000214DF20E10FDF70EFAE5214DF20F109E
:10345000FDF709FA01214DF21010FDF704FA1321CE
:103460004DF21110FDF7FFF901214DF21210FDF799
:10347000FAF954214DF21310FDF7F5F901214DF23F
:103480001410FDF7F0F982214DF21510FDF7EBF95C
:1034900001214DF21610FDF7E6F9CA214DF2171081
:1034A000FDF7E1F902214DF21810FDF7DCF90021DA
:1034B0004DF21910FDF7D7F902214DF21A10FDF760
:1034C000D2F901214DF21B10FDF7CDF902214DF289
:1034D0001C10FDF7C8F934214DF21D10FDF7C3F99A
:1034E00002214DF21E10FDF7BEF967214DF21F10AB
:1034F000FDF7B9F902214DF22010FDF7B4F984214E
:103500004DF22110FDF7AFF902214DF22210FDF727
:10351000AAF9A4214DF22310FDF7A5F902214DF2DD
:103520002410FDF7A0F9B7214DF22510FDF79BF906
:1035300002214DF22610FDF796F9CF214DF227100A
:10354000FDF791F902214DF22810FDF78CF9DE21EB
:103550004DF22910FDF787F902214DF22A10FDF7EF
:1035600082F9F2214DF22B10FDF77DF902214DF287
:103570002C10FDF778F9FE214DF22D10FDF773F9AF
:1035800003214DF22E10FDF76EF910214DF22F1090
:10359000FDF769F903214DF23010FDF764F933218D
:1035A0004DF23110FDF75FF903214DF23210FDF7B6
:1035B0005AF96D214DF23310FDF755F900214FF402
:1035C0005240FDF750F933214DF20120FDF74BF940
:1035D00000214DF20220FDF746F934214DF203207F
:1035E000FDF741F900214DF20420FDF73CF93A21A5
:1035F0004DF20520FDF737F900214DF20620FDF7C9
:1036000032F94A214DF20720FDF72DF900214DF244
:103610000820FDF728F95C214DF20920FDF723F978
:1036200000214DF20A20FDF71EF981214DF20B20F9
:10363000FDF719F900214DF20C20FDF714F9A62130
:103640004DF20D20FDF70FF900214DF20E20FDF790
:103650000AF9E5214DF20F20FDF705F901214DF2A0
:103660001020FDF700F913214DF21120FDF7FBF8B2
:1036700001214DF21220FDF7F6F854214DF21320EE
:10368000FDF7F1F801214DF21420FDF7ECF882214D
:103690004DF21520FDF7E7F801214DF21620FDF758
:1036A000E2F8CA214DF21720FDF7DDF802214DF2B4
:1036B0001820FDF7D8F800214DF21920FDF7D3F8B6
:1036C00002214DF21A20FDF7CEF801214DF21B2008
:1036D000FDF7C9F802214DF21C20FDF7C4F8342192
:1036E0004DF21D20FDF7BFF802214DF21E20FDF71F
:1036F000BAF867214DF21F20FDF7B5F802214DF20F
:103700002020FDF7B0F884214DF22120FDF7ABF821
:1037100002214DF22220FDF7A6F8A4214DF223202C
:10372000FDF7A1F802214DF22420FDF79CF8B72106
:103730004DF22520FDF797F802214DF22620FDF7E6
:1037400092F8CF214DF22720FDF78DF802214DF29E
:103750002820FDF788F8DE214DF22920FDF783F8B7
:1037600002214DF22A20FDF77EF8F2214DF22B20A6
:10377000FDF779F802214DF22C20FDF774F8FE21B7
:103780004DF22D20FDF76FF803214DF22E20FDF7AD
:103790006AF810214DF22F20FDF765F803214DF254
:1037A0003020FDF760F833214DF23120FDF75BF852
:1037B00003214DF23220FDF756F86D214DF23320F2
:1037C000FDF751F800214FF45340FDF74CF8332139
:1037D0004DF20130FDF747F800214DF20230FDF7C0
:1037E00042F834214DF20330FDF73DF800214DF24F
:1037F0000430FDF738F83A214DF20530FDF733F883
:1038000000214DF20630FDF72EF84A214DF2073027
:10381000FDF729F800214DF20830FDF724F85C216E
:103820004DF20930FDF71FF800214DF20A30FDF787
:103830001AF881214DF20B30FDF715F800214DF2F9
:103840000C30FDF710F8A6214DF20D30FDF70BF806
:1038500000214DF20E30FDF706F8E5214DF20F3054
:10386000FDF701F801214DF21030FCF7FCFF1321A8
:103870004DF21130FCF7F7FF01214DF21230FCF749
:10388000F2FF54214DF21330FCF7EDFF01214DF210
:103890001430FCF7E8FF82214DF21530FCF7E3FF0E
:1038A00001214DF21630FCF7DEFFCA214DF2173030
:1038B000FCF7D9FF02214DF21830FCF7D4FF0021AC
:1038C0004DF21930FCF7CFFF02214DF21A30FCF710
:1038D000CAFF01214DF21B30FCF7C5FF02214DF25A
:1038E0001C30FCF7C0FF34214DF21D30FCF7BBFF4C
:1038F00002214DF21E30FCF7B6FF67214DF21F305A
:10390000FCF7B1FF02214DF22030FCF7ACFF84211F
:103910004DF22130FCF7A7FF02214DF22230FCF7D7
:10392000A2FFA4214DF22330FCF79DFF02214DF2AE
:103930002430FCF798FFB7214DF22530FCF793FFB8
:1039400002214DF22630FCF78EFFCF214DF22730B9
:10395000FCF789FF02214DF22830FCF784FFDE21BD
:103960004DF22930FCF77FFF02214DF22A30FCF79F
:103970007AFFF2214DF22B30FCF775FF02214DF258
:103980002C30FCF770FFFE214DF22D30FCF76BFF61
:1039900003214DF22E30FCF766FF10214DF22F303F
:1039A000FCF761FF03214DF23030FCF75CFF33215F
:1039B0004DF23130FCF757FF03214DF23230FCF766
:1039C00052FF6D214DF23330FCF74DFF00214FF4D3
:1039D0005440FCF748FF33214DF20140FCF743FF10
:1039E00000214DF20240FCF73EFF34214DF203402E
:1039F000FCF739FF00214DF20440FCF734FF3A2177
:103A00004DF20540FCF72FFF00214DF20640FCF778
:103A10002AFF4A214DF20740FCF725FF00214DF215
:103A20000840FCF720FF5C214DF20940FCF71BFF2A
:103A300000214DF20A40FCF716FF81214DF20B40A8
:103A4000FCF711FF00214DF20C40FCF70CFFA62102
:103A50004DF20D40FCF707FF00214DF20E40FCF740
:103A600002FFE5214DF20F40FCF7FDFE01214DF272
:103A70001040FCF7F8FE13214DF21140FCF7F3FE65
:103A800001214DF21240FCF7EEFE54214DF213409D
:103A9000FCF7E9FE01214DF21440FCF7E4FE82211F
:103AA0004DF21540FCF7DFFE01214DF21640FCF708
:103AB000DAFECA214DF21740FCF7D5FE02214DF285
:103AC0001840FCF7D0FE00214DF21940FCF7CBFE68
:103AD00002214DF21A40FCF7C6FE01214DF21B40B7
:103AE000FCF7C1FE02214DF21C40FCF7BCFE342164
:103AF0004DF21D40FCF7B7FE02214DF21E40FCF7CF
:103B0000B2FE67214DF21F40FCF7ADFE02214DF2DF
:103B10002040FCF7A8FE84214DF22140FCF7A3FED3
:103B200002214DF22240FCF79EFEA4214DF22340DB
:103B3000FCF799FE02214DF22440FCF794FEB721D8
:103B40004DF22540FCF78FFE02214DF22640FCF796
:103B50008AFECF214DF22740FCF785FE02214DF26F
:103B60002840FCF780FEDE214DF22940FCF77BFE69
:103B700002214DF22A40FCF776FEF2214DF22B4055
:103B8000FCF771FE02214DF22C40FCF76CFEFE2189
:103B90004DF22D40FCF767FE03214DF22E40FCF75D
:103BA00062FE10214DF22F40FCF75DFE03214DF225
:103BB0003040FCF758FE33214DF23140FCF753FE04
:103BC00003214DF23240FCF74EFE6D214DF23340A1
:103BD000FCF749FE00214FF45540FCF744FE332129
:103BE0004DF20150FCF73FFE00214DF20250FCF770
:103BF0003AFE34214DF20350FCF735FE00214DF220
:103C00000450FCF730FE3A214DF20550FCF72BFE34
:103C100000214DF20650FCF726FE4A214DF20750D6
:103C2000FCF721FE00214DF20850FCF71CFE5C2140
:103C30004DF20950FCF717FE00214DF20A50FCF737
:103C400012FE81214DF20B50FCF70DFE00214DF2CA
:103C50000C50FCF708FEA6214DF20D50FCF703FEB8
:103C600000214DF20E50FCF7FEFDE5214DF20F5004
:103C7000FCF7F9FD01214DF21050FCF7F4FD132182
:103C80004DF21150FCF7EFFD01214DF21250FCF7FF
:103C9000EAFD54214DF21350FCF7E5FD01214DF2F0
:103CA0001450FCF7E0FD82214DF21550FCF7DBFDCE
:103CB00001214DF21650FCF7D6FDCA214DF21750E6
:103CC000FCF7D1FD02214DF21850FCF7CCFD00218C
:103CD0004DF21950FCF7C7FD02214DF21A50FCF7C6
:103CE000C2FD01214DF21B50FCF7BDFD02214DF23A
:103CF0001C50FCF7B8FD34214DF21D50FCF7B3FD0C
:103D000002214DF21E50FCF7AEFD67214DF21F500F
:103D1000FCF7A9FD02214DF22050FCF7A4FD8421FF
:103D20004DF22150FCF79FFD02214DF22250FCF78D
:103D30009AFDA4214DF22350FCF795FD02214DF28E
:103D40002450FCF790FDB7214DF22550FCF78BFD78
:103D500002214DF22650FCF786FDCF214DF227506F
:103D6000FCF781FD02214DF22850FCF77CFDDE219D
:103D70004DF22950FCF777FD02214DF22A50FCF755
:103D800072FDF2214DF22B50FCF76DFD02214DF238
:103D90002C50FCF768FDFE214DF22D50FCF763FD21
:103DA00003214DF22E50FCF75EFD10214DF22F50F5
:103DB000FCF759FD03214DF23050FCF754FD33213F
:103DC0004DF23150FCF74FFD03214DF23250FCF71C
:103DD0004AFD6D214DF23350FCF745FD00214FF4B3
:103DE0005640FCF740FD33214DF20160FCF73BFDEE
:103DF00000214DF20260FCF736FD34214DF20360E4
:103E0000FCF731FD00214DF20460FCF72CFD3A2156
:103E10004DF20560FCF727FD00214DF20660FCF72E
:103E200022FD4A214DF20760FCF71DFD00214DF2F5
:103E30000860FCF718FD5C214DF20960FCF713FDEA
:103E400000214DF20A60FCF70EFD81214DF20B605E
:103E5000FCF709FD00214DF20C60FCF704FDA621E2
:103E60004DF20D60FCF7FFFC00214DF20E60FCF7F7
:103E7000FAFCE5214DF20F60FCF7F5FC01214DF253
:103E80001060FCF7F0FC13214DF21160FCF7EBFC25
:103E900001214DF21260FCF7E6FC54214DF2136053
:103EA000FCF7E1FC01214DF21460FCF7DCFC8221FF
:103EB0004DF21560FCF7D7FC01214DF21660FCF7BE
:103EC000D2FCCA214DF21760FCF7CDFC02214DF265
:103ED0001860FCF7C8FC00214DF21960FCF7C3FC28
:103EE00002214DF21A60FCF7BEFC01214DF21B606D
:103EF000FCF7B9FC02214DF21C60FCF7B4FC342144
:103F00004DF21D60FCF7AFFC02214DF21E60FCF784
:103F1000AAFC67214DF21F60FCF7A5FC02214DF2BF
:103F20002060FCF7A0FC84214DF22160FCF79BFC93
:103F300002214DF22260FCF796FCA4214DF2236091
:103F4000FCF791FC02214DF22460FCF78CFCB721B8
:103F50004DF22560FCF787FC02214DF22660FCF74C
:103F600082FCCF214DF22760FCF77DFC02214DF24F
:103F70002860FCF778FCDE214DF22960FCF773FC29
:103F800002214DF22A60FCF76EFCF2214DF22B600B
:103F9000FCF769FC02214DF22C60FCF764FCFE2169
:103FA0004DF22D60FCF75FFC03214DF22E60FCF713
:103FB0005AFC10214DF22F60FCF755FC03214DF205
:103FC0003060FCF750FC33214DF23160FCF74BFCC4
:103FD00003214DF23260FCF746FC6D214DF2336057
:103FE000FCF741FC55214FF47040FCF73CFCAA2142
:103FF0004FF20100FCF737FC52214FF20200FCF7B0
:1040000032FC08214FF20300FCF72DFC00214FF297
:104010000400FCF728FCCC214FF43140FCF723FCD2
:1040200000214BF20110FCF71EFC05214FF4364035
:10403000FCF719FC70214FF43740FCF714FC702199
:104040004BF20170FCF70FFC01214FF43840FCF7F4
:104050000AFC03214BF60100FCF705FC03214BF69B
:104060000200FCF700FC03214BF60300FCF7FBFB0E
:1040700002214FF43C40FCF7F6FB00214BF60140D7
:10408000FCF7F1FB00214BF60240FCF7ECFBD021E2
:104090004FF44940FCF7E7FB02214CF60110FCF716
:1040A000E2FB50214CF60210FCF7DDFB50214CF6F0
:1040B0000310FCF7D8FB50214CF60410FCF7D3FB9F
:1040C00000214FF45450FCF7CEFB55214FF46850BB
:1040D000FCF7C9FB4FF48850FCF750FB782003F045
:1040E00080FF4FF42450FCF749FB00F038BDA0F5E9
:1040F0001341253929D0C91E00F0FC80083100F099
:10410000ED81113900F09882A0F5A841083900F03E
:104110007383A0F5A851053900F00F84B1F5204153
:1041200000F02A85B1F5805100F02686A0F50941FE
:10413000893900F0EE86A0F58A41313900F0A68772
:10414000091F01F05C8000F00ABD47F6F001E52090
:10415000FCF789FB4FF480710120FCF784FB4FF4DE
:10416000E0610220FCF77FFB41F230010320FCF705
:104170007AFB00210420FCF776FB40F202210820A4
:10418000FCF771FB00210920FCF76DFB00210A20E0
:10419000FCF769FB00210C20FCF765FB00210D20DA
:1041A000FCF761FB00210F20FCF75DFB00211020D4
:1041B000FCF759FB07211120FCF755FB00211220C9
:1041C000FCF751FB00211320FCF74DFB00210720D9
:1041D000FCF749FB41F290611020FCF744FB40F2F0
:1041E00027211120FCF73FFB9D211220FCF73BFB10
:1041F0004FF4C8511320FCF736FB25212920FCF78A
:1042000032FB0D212B20FCF72EFB07213020FCF781
:104210002AFB40F203313120FCF725FB0321322039
:10422000FCF721FB40F206213520FCF71CFB08219E
:104230003620FCF718FB40F206413720FCF713FB51
:104240004FF441713820FCF70EFB07213920FCF7B1
:104250000AFB40F202613C20FCF705FB08213D20EF
:10426000FCF701FB00215020FCF7FDFAEF21512063
:10427000FCF7F9FA00215220FCF7F5FA40F23F1161
:104280005320FCF7F0FA4FF427416020FCF7EBFADB
:1042900001216120FCF7E7FA00216A20FCF7E3FA2C
:1042A00000218020FCF7DFFA00218120FCF7DBFAF7
:1042B00000218220FCF7D7FA00218320FCF7D3FAF3
:1042C00000218420FCF7CFFA00218520FCF7CBFAEF
:1042D00010219020FCF7C7FA4FF4C0619220FCF740
:1042E000C2FA40F233110720FCF7BDFA2221002068
:1042F00000F09EB941F28F01EC20FCF7B4FA41F2D4
:104300003421EF20FCF7AFFA4FF480710120FCF765
:10431000AAFA4FF4E0610220FCF7A5FA41F230015D
:104320000320FCF7A0FA00210420FCF79CFA40F2DD
:1043300002210820FCF797FA00210920FCF793FAE4
:1043400000210A20FCF78FFA01210C20FCF78BFAE0
:1043500000210D20FCF787FA00210F20FCF783FADB
:1043600000211020FCF77FFA07211120FCF77BFACF
:1043700000211220FCF777FA00211320FCF773FAD2
:1043800001210720FCF76FFA322003F043FE41F2CF
:1043900090411020FCF767FA40F227211120FCF72A
:1043A00062FA322003F036FE8A211220FCF75BFA13
:1043B000322003F02FFE4FF4D0511320FCF753FAB4
:1043C00006212920FCF74FFA0D212B20FCF74BFA90
:1043D000322003F01FFE00212020FCF744FA0021C8
:1043E0002120FCF740FA322003F014FE0021302097
:1043F000FCF739FA40F204613120FCF734FA40F25C
:1044000005313220FCF72FFA00213520FCF72BFA7A
:1044100040F609413620FCF726FA4FF401713720A7
:10442000FCF721FA40F201313820FCF71CFA40F287
:1044300007713920FCF717FA00213C20FCF713FA2A
:1044400040F60A213D20FCF70EFA322003F0E2FD8F
:1044500000215020FCF707FAEF215120FCF703FA66
:1044600000215220FCF7FFF940F23F115320FCF7E6
:10447000FAF94FF427416020FCF7F5F9012161209A
:10448000FCF7F1F900216A20FCF7EDF9002180200A
:10449000FCF7E9F900218120FCF7E5F900218220F1
:1044A000FCF7E1F900218320FCF7DDF900218420ED
:1044B000FCF7D9F900218520FCF7D5F910219020CF
:1044C000FCF7D1F94FF4C0619220FCF7CCF940F22F
:1044D00033110720FCF7C7F900F041BB0021084663
:1044E000FCF7C1F94FF480710120FCF7BCF94FF4DF
:1044F000E0610220FCF7B7F941F230010320FCF73C
:10450000B2F900210420FCF7AEF940F202210820A4
:10451000FCF7A9F900210920FCF7A5F900210A20E0
:10452000FCF7A1F901210C20FCF79DF900210D20D9
:10453000FCF799F900210F20FCF795F9322003F0E0
:1045400069FD40F201110720FCF78DF9322003F0DC
:1045500061FD4FF486511020FCF785F907211120E9
:10456000FCF781F94FF488711220FCF77CF94FF4C5
:1045700030611320FCF777F900212920FCF773F94B
:1045800044F210012B20FCF76EF900215020FCF7BB
:104590006AF9EF215120FCF766F900215220FCF75F
:1045A00062F940F23F115320FCF75DF94FF41C51C2
:1045B0006020FCF758F901216120FCF754F9002133
:1045C0006A20FCF750F900218020FCF74CF900210B
:1045D0008120FCF748F900218220FCF744F90021F2
:1045E0008320FCF740F900218420FCF73CF90021EE
:1045F0008520FCF738F910219020FCF734F90021D0
:104600009220FCF730F901219320FCF72CF94FF4AC
:1046100088719520FCF727F900219720FCF723F9F2
:1046200000219820FCF71FF940F2731100F093BEAF
:10463000FCF719F900F093BA41F21401E720FCF7F6
:1046400012F94FF480710120FCF70DF94FF400715D
:104650000220FCF708F941F238010320FCF703F9C6
:1046600040F202210820FCF7FEF800210920FCF7A7
:10467000FAF800210A20FCF7F6F800210C20FCF7DC
:10468000F2F800210D20FCF7EEF800210F20FCF7D6
:10469000EAF800211020FCF7E6F807211120FCF7CA
:1046A000E2F800211220FCF7DEF800211320FCF7CD
:1046B000DAF8C82003F0AEFC41F290611020FCF75C
:1046C000D2F840F227211120FCF7CDF8322003F078
:1046D000A1FC0C211220FCF7C6F8322003F09AFC52
:1046E0004FF400611320FCF7BEF811212920FCF7DC
:1046F000BAF80B212B20FCF7B6F8322003F08AFC25
:1047000000212020FCF7AFF840F23F112120FCF7F8
:10471000AAF800213020FCF7A6F84FF4837131206D
:10472000FCF7A1F800213220FCF79DF84FF401714D
:104730003520FCF798F841F20A613620FCF793F82F
:1047400040F207713720FCF78EF84FF48371382060
:10475000FCF789F840F207713920FCF784F840F241
:1047600002413C20FCF77FF840F60F413D20FCF76A
:104770007AF800215020FCF776F8EF215120FCF761
:1047800072F800215220FCF76EF840F23F115320DE
:10479000FCF769F84FF41C516020FCF764F8012124
:1047A0006120FCF760F800216A20FCF75CF800212A
:1047B0008020FCF758F800218120FCF754F80021F4
:1047C0008220FCF750F800218320FCF74CF80021F0
:1047D0008420FCF748F800218520FCF744F81021DC
:1047E0009020FCF740F84FF4C0619220FCF73BF8B2
:1047F00040F2331100F0AFBD4FF480710120FCF79F
:1048000032F84FF4E0610220FCF72DF841F230015C
:104810000320FCF728F800210420FCF724F840F2DC
:1048200007210820FCF71FF800210920FCF71BF8DE
:1048300000210A20FCF717F800210C20FCF713F8E0
:1048400000210D20FCF70FF800210F20FCF70BF8DA
:10485000142003F0DFFB41F2B0611020FCF703F8F5
:1048600001211120FBF7FFFF01211720FBF7FBFFC0
:104870004FF49C711220FBF7F6FF4FF400611320F8
:10488000FBF7F1FF09212920FBF7EDFF09212A2081
:10489000FBF7E9FF0021A420FBF7E5FF00215020F2
:1048A000FBF7E1FFEF215120FBF7DDFF0021522054
:1048B000FBF7D9FF40F23F115320FBF7D4FF4FF431
:1048C0001C516020FBF7CFFF01216120FBF7CBFFDC
:1048D00000216A20FBF7C7FF00218020FBF7C3FF00
:1048E00000218120FBF7BFFF00218220FBF7BBFFE7
:1048F00000218320FBF7B7FF00218420FBF7B3FFE3
:1049000000218520FBF7AFFF13219020FBF7ABFFC1
:1049100000219220FBF7A7FF03219320FBF7A3FFC1
:104920004FF488719520FBF79EFF40F2731107202A
:10493000FBF799FF322000F010B900210720FBF7A8
:1049400092FF322003F066FB4FF48E711220FBF7CA
:104950008AFF0121A420FBF786FF0F210820FBF727
:1049600082FF08210A20FBF77EFF08210D20FBF7BC
:104970007AFF40F207713020FBF775FF07213120E5
:10498000FBF771FF40F203613220FBF76CFF4FF43D
:10499000E0613320FBF767FF40F202213420FBF790
:1049A00062FF02213520FBF75EFF41F60F713620D2
:1049B000FBF759FF40F207713720FBF754FF002146
:1049C0003820FBF750FF00213920FBF74CFF40F265
:1049D00007713A20FBF747FF00213B20FBF743FF1D
:1049E00007213C20FBF73FFF00213D20FBF73BFF69
:1049F000322003F00FFB01210720FBF734FF0121D8
:104A00001720FBF730FF322003F004FB4FF4BD51B9
:104A10001020FBF728FF40F217211120FBF723FF9E
:104A20004FF48F711220FBF71EFF4FF470611320BB
:104A3000FBF719FF00212A20FBF715FF0A21292087
:104A4000FBF711FF4FF49F711220FBF70CFF0021C1
:104A50005020FBF708FFEF215120FBF704FF002156
:104A60005220FBF700FF40F23F115320FBF7FBFE03
:104A70004FF41C516020FBF7F6FE01216120FBF78B
:104A8000F2FE00216A20FBF7EEFE00218020FBF7FA
:104A9000EAFE00218120FBF7E6FE00218220FBF7E1
:104AA000E2FE00218320FBF7DEFE00218420FBF7DD
:104AB000DAFE00218520FBF7D6FE13219020FBF7BC
:104AC000D2FE4FF440719220FBF7CDFE05219320DA
:104AD000FBF7C9FE00219520FBF7C5FE00219720BA
:104AE000FBF7C1FE00219820FBF7BDFE4FF480715B
:104AF0000120FBF7B8FE4FF4E0610220FBF7B3FEA4
:104B000041F238010320FBF7AEFE00210420FBF741
:104B1000AAFE00210C20FBF7A6FE00210F20FBF7C8
:104B2000A2FE00212020FBF79EFE00212120FBF7A2
:104B30009AFE21210720FBF796FE142003F06AFA63
:104B400061210720FBF78FFE142003F063FA40F287
:104B500073110720FBF787FE142003F05BFA002097
:104B6000FCF7FAFDFE490120C1F8A8014FF6FF70DD
:104B7000FDF7F3F8BDE8F88300210846FBF773FE64
:104B800000210846FBF76FFE00210846FBF76BFE8D
:104B900000210846FBF767FE0121A420FBF763FE16
:104BA000142003F037FA4FF41C516020FBF75BFE32
:104BB00040F202210820FBF756FE4FF40571302029
:104BC000FBF751FE43F215713120FBF74CFE40F22A
:104BD00004613220FBF747FE40F616613320FBF7F5
:104BE00042FE42F211213420FBF73DFE4FF4A85162
:104BF0003520FBF738FE48F207513620FBF733FE2D
:104C000041F207413720FBF72EFE41F203413820E5
:104C1000FBF729FE20213920FBF725FE1A219020E1
:104C2000FBF721FE00211020FBF71DFE07211120BC
:104C3000FBF719FE00211220FBF715FE00211320BF
:104C4000FBF711FE142003F0E5F94FF4E6611020A4
:104C5000FBF709FE40F237111120FBF704FE142088
:104C600003F0D8F94FF4DC711220FBF7FCFD14209F
:104C700003F0D0F94FF470611320FBF7F4FD8021AD
:104C80002A20FBF7F0FD48212920FBF7ECFD14203A
:104C900003F0C0F94FF480710120FBF7E4FD4FF4FD
:104CA000E0610220FBF7DFFD41F238010320FBF752
:104CB000DAFD40F202210820FBF7D5FD00210A2091
:104CC000FBF7D1FD00210C20FBF7CDFD00210D20CD
:104CD000FBF7C9FD30210E20FBF7C5FD0021502058
:104CE000FBF7C1FDEF215120FBF7BDFD0021522054
:104CF000FBF7B9FD40F23F115320FBF7B4FD4FF431
:104D00001C516020FBF7AFFD01216120FBF7ABFDDB
:104D100000216A20FBF7A7FD11219020FBF7A3FDDE
:104D20004FF4C0619220FBF79EFD40F202419320B8
:104D3000FBF799FD02219420FBF795FD142003F069
:104D400069F901210720FBF78EFD142003F062F9B9
:104D500061210720FBF787FD40F273110720FBF765
:104D600082FD00212020FBF77EFD00212120FBF7A2
:104D70007AFD222100205BE400210846FBF773FD49
:104D800000210846FBF76FFD142003F043F90021D2
:104D90000846FBF768FD00210846FBF764FD00218B
:104DA0000846FBF760FD00210846FBF75CFD01218A
:104DB000A420FBF758FD142003F02CF94FF41C51EC
:104DC0006020FBF750FD40F606010820FBF74BFD85
:104DD00040F203713020FBF746FD01213120FBF743
:104DE00042FD04213220FBF73EFD4FF48171332058
:104DF000FBF739FD4FF440713420FBF734FD40F2EE
:104E000003113520FBF72FFD1F213620FBF72BFD6B
:104E100040F203713720FBF726FD01213820FBF714
:104E200022FD04213920FBF71EFD15219020FBF700
:104E30001AFD4FF482611020FBF715FD40F2472167
:104E40001120FBF710FD4FF4DE711220FBF70BFD74
:104E50004FF460611320FBF706FD782003F0DAF8C9
:104E60004FF480710120FBF7FEFC4FF4007102202B
:104E7000FBF7F9FC41F230010320FBF7F4FC0821B9
:104E80000A20FBF7F0FC00210C20FBF7ECFC2021B2
:104E90000E20FBF7E8FC00210F20FBF7E4FC0021CB
:104EA0002020FBF7E0FC00212120FBF7DCFC3D216A
:104EB0002A20FBF7D8FC142003F0ACF82D21292080
:104EC000FBF7D1FC00215020FBF7CDFC4DF2EF01A8
:104ED0005120FBF7C8FC00215220FBF7C4FC40F234
:104EE0003F115320FBF7BFFC00216120FBF7BBFC07
:104EF00000216A20FBF7B7FC4FF440719220FBF7CA
:104F0000B2FC05219320FBF7AEFC4FF4807100F05A
:104F100022BA01210020FBF7A6FC4AF6A4010320D7
:104F2000FBF7A1FC00210C20FBF79DFC40F60C01D7
:104F30000D20FBF798FC4FF42C510E20FBF793FC4F
:104F4000B0211E20FBF78FFC42F63F310120FBF71A
:104F50008AFC4FF4C0610220FBF785FC002101E0D0
:104F6000000022421020FBF77EFC46F2780111205F
:104F7000FBF779FC00210520FBF775FC00210620DA
:104F8000FBF771FC4EF61C711620FBF76CFC03213D
:104F90001720FBF768FC40F233210720FBF763FC86
:104FA00000210B20FBF75FFC00210F20FBF75BFCCF
:104FB00000214120FBF757FC00214220FBF753FC66
:104FC00000214820FBF74FFC40F23F114920FBF73E
:104FD0004AFC00214A20FBF746FC00214B20FBF74E
:104FE00042FC4FF46F414420FBF73DFC002145207B
:104FF000FBF739FC40F23F114620FBF734FC40F24E
:1050000007713020FBF72FFC4FF401713120FBF7C3
:105010002AFC4FF401713220FBF725FC40F20251CB
:105020003320FBF720FC40F207513420FBF71BFC38
:105030004FF401713520FBF716FC4FF40171362057
:10504000FBF711FC40F202513720FBF70CFC40F259
:1050500002313A20FBF707FC40F202313B20FBF71C
:1050600002FC00212320FBF7FEFB00212420FBF79C
:10507000FAFB4FF400412520FBF7F5FB00214F2000
:10508000FBF7F1FB00214E20FFF7D2BA01210020EF
:10509000FBF7E9FB0A2002F0BDFF41F22861102076
:1050A000FBF7E1FB0E211220FBF7DDFB40F6392177
:1050B0001320FBF7D8FB0A2002F0ACFF402111209F
:1050C000FBF7D1FB50211520FBF7CDFB0A2002F0A6
:1050D000A1FF1E211220FBF7C6FB0A2002F09AFF57
:1050E0004FF4B1511020FBF7BEFB42F639211320DB
:1050F000FBF7B9FB0A2002F08DFF4FF4807101200D
:10510000FBF7B1FB4FF440710220FBF7ACFB41F21F
:1051100038010320FBF7A7FB40F202210820FBF730
:10512000A2FB08210A20FBF79EFB00213020FBF7A1
:105130009AFB40F202413120FBF795FB4FF483715B
:105140003220FBF790FB40F203513320FBF78BFB3F
:105150004FF482713420FBF786FB40F20131352099
:10516000FBF781FB40F207713620FBF77CFB40F236
:1051700005313720FBF777FB4FF402713820FBF73E
:1051800072FB40F60B713920FBF76DFB02214120C9
:10519000FBF769FB4FF41C516020FBF764FB012116
:1051A0006120FBF760FB4FF404719020FBF75BFB81
:1051B0004FF485719220FBF756FB04219320FBF7F7
:1051C00052FB4FF48071A020FBF74DFB012107201B
:1051D000FBF749FB21210720FBF745FB2321072093
:1051E000FBF741FB33210720FBF73DFB40F2331176
:1051F0000720FBF738FB0021A020FFF719BA302168
:105200001520FBF730FB10219A20FBF72CFB202107
:105210001120FBF728FB43F228411020FBF723FB6A
:1052200002211220FBF71FFB41F238011320FBF78C
:105230001AFB282002F0EEFE12210846FBF713FBB2
:10524000282002F0E7FE43F220411020FBF70BFB81
:1052500043F238011320FBF706FB462002F0DAFE8A
:1052600000213020FBF7FFFA40F202413120FBF72A
:10527000FAFA40F207313220FBF7F5FA4FF44171A8
:105280003320FBF7F0FA04213420FBF7ECFA40F26C
:1052900001413520FBF7E7FA40F207713620FBF7B2
:1052A000E2FA40F205313720FBF7DDFA4FF4C26134
:1052B0003820FBF7D8FA4FF4C2613920FBF7D3FA54
:1052C0004FF480710120FBF7CEFA4FF440710220B9
:1052D000FBF7C9FA41F230010320FBF7C4FA40F6AC
:1052E00008010820FBF7BFFA08210A20FBF7BBFAE8
:1052F0004FF41C516020FBF7B6FA01216120FBF747
:10530000B2FA4FF49F719020FBF7ADFA4FF4807121
:105310009220FBF7A8FA4FF480719320FBF7A3FAD1
:105320004FF44051A020FBF79EFA1021A320FBF779
:105330009AFA01210720FBF796FA21210720FBF7B3
:1053400092FA23210720FBF78EFA33210720FBF77F
:105350008AFA40F233110720FFF76AB92DE9F84FB6
:10536000FC4C81461F46A088DDF828A0A0F5D0435C
:10537000043B04BFA07901283CD0A2EB0900401CEB
:1053800086B20D46B9429ABFDFF8CC83DFF8CCB3C2
:10539000BDE8F88F29464846FBF7B5FAED48008985
:1053A000FBF7ECF90024002E1ED94FF48071404623
:1053B00002F0F1FF4FF40071404602F0EEFF51465B
:1053C000584602F0F1FF8021404602F0E6FF8021BE
:1053D000404602F0E0FF4FF40071404602F0DBFF70
:1053E000601C84B2A642E0D8681C85B2BD42D1D907
:1053F000BDE8F88F20888C46811AA0EB0900401E7A
:1054000083B20020A0712A2565812B26491EA68122
:1054100089B23A466046CDF800A0FFF79FFF012011
:10542000A0716681A581BDE8F88F2DE9FF5F8A46EE
:1054300000980E9F101A401C86B2A3EB0A00401C75
:105440001FFA80F8B8F1000F4FF0000519BFDFF820
:105450000893DFF808B304B0BDE8F09F0AEB05003D
:1054600081B20098FBF74FFABA480089FBF786F93A
:105470000024002E21D94FF48071484602F08BFFA2
:105480004FF40071484602F088FF05FB064037F8EC
:105490001010584602F088FF8021484602F07DFF38
:1054A0008021484602F077FF4FF40071484602F031
:1054B00072FF601C84B2A642DDD8681C85B24545E7
:1054C000CCD304B0BDE8F09F2DE9F04F0026A2EB4D
:1054D00000085F1A83B0354682468946B8F1000F4E
:1054E000C8BF012007DC0FBF00204FF0FF30C8F11C
:1054F0000008019000D10190002FC8BF012006DCF8
:105500000FBF00204FF0FF307F42009000D100908D
:10551000B845CCBF44463C464FF0000B601C52BF20
:10552000029003B0BDE8F08F1FFA89F11FFA8AF0EC
:10553000FBF716FF46443D44A64202DD0198361BA8
:105540008244A54202DD00982D1B81440BF101002D
:105550001FFA80FB02988345E6DD03B0BDE8F08FBB
:105560002DE9F0411C4615460E4607460B46FFF74F
:10557000ABFF3A46234631461046FFF7A5FF2346C8
:105580002A4619463846FFF79FFF2A4623463146EA
:10559000BDE8F041104697E72DE9F04F8046002422
:1055A00015004FF0030083B00F46A0EB450644BF43
:1055B00003B0BDE8F08FA7EB040AA8EB05091FFABA
:1055C0008AF11FFA89F0FBF7CBFE08EB050001908A
:1055D0001FFA8AF180B2FBF7C3FE781981B2A8EBFB
:1055E000040B00901FFA8BF0FBF7BAFE1FFA8AF14A
:1055F0001FFA89F0FBF7B4FEA7EB050A1FFA8AF140
:105600001FFA8BF0FBF7ACFE019807EB040B1FFAB7
:105610008BF180B2FBF7A4FE1FFA8AF108EB040AB3
:105620001FFA8AF0FBF79CFE009881B21FFA8AF0FD
:10563000FBF796FE1FFA8BF11FFA89F0FBF790FE3D
:10564000641C002EBCBF06EB8400861D05DB601BBE
:1056500006EB800000F10A066D1E781981B208EB96
:10566000040080B2FBF77CFEAC42A4DD03B0BDE8D1
:10567000F08F2DE9F04F85B08146DDF838B01F4638
:105680000D468A4613F0070018BF012000EBD70033
:105690007908484310F0FF01A2F12000C0B24FF09A
:1056A0000008009104BF05B0BDE8F08F00EB400199
:1056B0002B4A02EB8101039102F2744101EB0011CC
:1056C000029100EBC00002F6642101EB8000019022
:1056D0000C2F04BF039810F808400BD0102F08BF00
:1056E000029805D0182F0EBF019805B0BDE8F08FC5
:1056F00010F80840002614F0800F06D019482946FB
:1057000002884846FBF750FE08E0BBF1000F05D1C8
:105710001448294642884846FBF746FE6006040EB8
:10572000681C85B20B48008848459CBF05B0BDE8A1
:10573000F08FA5EB0A00B84216D109F101001FFA5B
:1057400080F904485546008848459CBF05B0BDE82F
:10575000F08F0DE0BC03002000100140000C014060
:10576000C240010816000020701CC6B2082EC2D329
:1057700008F1010000F0FF0800984045A8D805B0E6
:10578000BDE8F08F034601204A1ED2B238BF7047F1
:105790005843521ED2B2FBD270472DE9FF4F4FF053
:1057A000000781B01D00924680463C4604BF05B00C
:1057B000BDE8F08FA5F101090E984FF0000B4608E7
:1057C000281B401E0A23C2B20121501EC0B203D3BF
:1057D0005943401EC0B2FBD2BAFBF1F05B49A1FBBA
:1057E0000021C908494201EB810100EB41002FB9BA
:1057F0004C4503DA002818BF012711D03030C2B25F
:1058000006FB048080B2CDF800B00E9B0299FFF732
:1058100030FF601CC4B2AC42D2D305B0BDE8F08FFB
:1058200006FB048080B2CDF800B020220E9B0299C6
:10583000FFF71FFFEDE72DE9FF4F81B04FF00009A3
:10584000DDF83CA01F0080464C4604BF05B0BDE813
:10585000F08FA7F1010B0E980AF001054608381BDE
:10586000401E0A23C2B20121501EC0B203D35943C5
:10587000401EC0B2FBD20398B0FBF1F03349A1FB4C
:105880000021C908494201EB810100EB4100B9F157
:10589000000F06D15C4504DA002818BF4FF001095B
:1058A00010D03030C2B206FB048080B200950E9B4F
:1058B0000299FFF7DEFE601CC4B2BC42CFD305B034
:1058C000BDE8F08F06FB04800E9B1AF0800F80B2BB
:1058D000009504D030220299FFF7CBFEEBE720229F
:1058E0000299FFF7C6FEE6E72DE9F84F044600F0FF
:1058F000FF08DDE90A7510190E461FFA80FA98199B
:105900001FFA80F9287820385E2894BF4FF0000BEA
:10591000BDE8F88FA24502D8F019444686B2B145D9
:1059200098BFBDE8F88FCDF800B02A783B463146E5
:105930002046FFF79EFE04EB570084B215F8010FD6
:1059400020385E28E6D9BDE8F88F0000CDCCCCCC5D
:1059500070B54C4D064600240221284603F02DFA6E
:1059600048B9601CC4B2C82C13D80221284603F0E1
:1059700024FA0028F5D03146284603F0DFF9002448
:105980000121284603F019FA58B9601CC4B2C82C8A
:1059900001D9002070BD0121284603F00EFA00282D
:1059A000F3D0284603F0CCF9C0B270BDF8B50121A0
:1059B00041F2040002F080FEE020ADF80000182063
:1059C0008DF803000320304C8DF802006946204614
:1059D00002F065FCE021204602F0DDFC2B480021AE
:1059E0004FF482720180428081800222C2800122B3
:1059F00002815202428138228281C18107210182C3
:105A0000204D0146284603F0DDF80121284603F029
:105A10006EF9FF2600240221284603F0CEF950B982
:105A2000601CC4B2C82C88BFF8BD0221284603F010
:105A3000C4F90028F4D03146284603F07FF9002449
:105A40000121284603F0B9F950B9601CC4B2C82C32
:105A500088BFF8BD0121284603F0AFF90028F4D033
:105A6000284603F06DF9F8BD06490A8822F038028D
:105A70000A800A8810430880088840F040000880A7
:105A8000704700000030014000080140CA030020B8
:105A9000FD490028FD4A086820F47F400860086836
:105AA00007D040F40B400860106840F00C00106014
:105AB000704740F44C500860106840F00C001060D3
:105AC000704770B5F24D0024C5F88841902005F567
:105AD000C475FFF73DFF0020FFF73AFF0020FFF7F6
