:020000040800F2
:10000000700F0020490A0008590200085B0200082E
:100010005D0200085F0200086102000800000000A5
:100020000000000000000000000000006302000863
:10003000650200080000000067020008690200086D
:10004000630A0008630A0008630A0008630A0008DC
:10005000630A0008630A0008630A0008630A0008CC
:10006000630A0008630A0008630A0008630A0008BC
:10007000630A0008630A0008630A0008630A0008AC
:10008000630A0008630A0008630A0008630A00089C
:10009000630A0008630A0008630A0008630A00088C
:1000A000630A0008630A0008630A0008630A00087C
:1000B000630A0008630A0008D9070008630A0008F9
:1000C000630A0008630A0008630A0008630A00085C
:1000D000630A0008CD09000827050008630A000824
:1000E000630A0008630A0008630A000800F002F8C7
:1000F00000F090F80AA090E8000C82448344AAF132
:100100000107DA4501D100F085F8AFF2090EBAE82F
:100110000F0013F0010F18BFFB1A43F0010318473B
:100120006C4400008C440000103A24BF78C878C1A9
:10013000FAD8520724BF30C830C144BF04680C60ED
:10014000704700000023002400250026103A28BF35
:1001500078C1FBD8520728BF30C148BF0B60704739
:100160006E2903F06D80702903F0D781662904F0B1
:100170009B81652904F09881672904F095816129A4
:10018000AFF3008003681B0A28BF41F08001692992
:1001900002F06886642902F06586752902F062869D
:1001A0006F2903F06581782903F0A381E92903F021
:1001B000FF80E42903F0FC80F52903F0F980EF29A2
:1001C00003F06281F82903F0A2810368DB0928BFEC
:1001D00041F08001632903F06E80732903F073807E
:1001E000E32903F00184F32903F00684002070471B
:1001F0001FB503F057FC04000020002104F03EF975
:10020000401C60600020002104F022F9E0601FBD66
:1002100010B510BD03F018FC1146FFF7E9FF00F020
:1002200008F803F0F1FC03B4FFF7F2FF03BC00F0A1
:1002300075FB10B500F06EFB00F01CFB00F0C2F87F
:100240004FF4E13000F074FB4FF4E13000F0E2F9DC
:1002500002F073FC002010BD7047FEE7FEE7FEE7EA
:10026000FEE7704770477047704700004D4882B006
:10027000016841F00101016042684B491140416051
:10028000016821F4102121F080710160016821F4DE
:1002900080210160416821F4FE0141604FF41F019B
:1002A0008160002200920192016841F48031016076
:1002B000016801F4003101910099491C00910199F4
:1002C00019B90099B1F5A06FF2D1016811F4003F9E
:1002D00008BF019233D00121019134490A6842F0EC
:1002E00010020A600A6822F003020A600A6842F0FB
:1002F00002020A604168416041684160416841F41E
:1003000080614160416821F47C114160416841F4A1
:10031000E8114160016841F080710160016811F0ED
:10032000007FFBD0416821F003014160416841F04A
:1003300002014160416801F00C010829FAD11C4911
:100340004FF00060086002B07047164B5868194AB9
:10035000194910F00C0018BF042801D0082801D05A
:100360000A6015E058685A6800F470104FF0020CEB
:1003700012F4803F0CEB904003D05A6812F4003F17
:1003800003D00E4A5043086002E00A4A5043086016
:1003900058680B4AC0F30310105C0A6822FA00F098
:1003A00008607047001002400000FFF80020024083
:1003B00008ED00E000127A000000002000093D0076
:1003C0000400002008B50121102000F0D5FD4FF4F5
:1003D0000050ADF8000010208DF8030003208DF8C8
:1003E00002006946014800F0BAFB08BD0010014058
:1003F00038B50121142000F0BFFD01213C4800F078
:100400004BFC4FF40040ADF800003A4D48248DF805
:1004100003406946284600F0A2FB2021ADF80010F9
:100420008DF803406946344800F099FB0121ADF88E
:10043000001028218DF803106946284600F08FFB34
:1004400038BD2DE9F04101252C4C2B4F294E0028B9
:100450000ABF20782570002810D02021384600F0EF
:10046000E6FB90B14FF40041304600F0E0FB60B194
:100470000121304600F0DBFB012806D02021384660
:1004800000F0D5FB012830D121E00A2000F022FA4B
:10049000002020702021384600F0C9FB002804BF4E
:1004A0000120BDE8F0814FF40041304600F0BFFB71
:1004B000002804BF0220BDE8F0810121304600F091
:1004C000B6FB012804BF0320BDE8F0810DE04FF426
:1004D0000041304600F0ABFB012806D10121304637
:1004E00000F0A5FB002808BF25700020BDE8F081C2
:1004F00000023000000801400010014014000020FC
:10050000010010B5D1484FF0000108D0044601F0B9
:1005100069FD2046BDE81040012101F04ABBBDE85D
:10052000104001F046BB70B5C94C40F22551204641
:1005300000F0EEFE002808BF70BD204600F087FEE8
:10054000C44DC4B26888B0F5806F28BF40F4004045
:1005500012D2BE4E0021304601F044FD698839B9FF
:100560000021304601F03EFD0121304601F021FB23
:10057000B94968880C54401C688070BD30B50D4680
:10058000044685B00121042000F0FFFCADF80440D2
:100590000020ADF80050AD4CADF80600ADF80200FB
:1005A0006946204601F031F801221146204601F04B
:1005B00014FB1E208DF80C0001208DF80D00022187
:1005C0008DF80E108DF80F0003A800F0D2FE05B0D4
:1005D00030BD70B50C46064601218CB01546084664
:1005E00000F0C1FC304601F075FD00211020CDE97E
:1005F00002018020CDE904104001CDE908100691E8
:100600000A91079169463046CDE9004501F0C9FDE0
:100610000CB070BD2DE9F043044691B001210420D7
:1006200000F0AAFC0121480400F0AFFC884F3846D6
:1006300000F0F2FC0425ADF82C5003268DF82E6056
:100640001820DFF818828DF82F000BA9404600F023
:1006500086FA0820ADF82C008DF82F500BA94046E3
:1006600000F07DFA0C940024ADF838400C20ADF871
:100670003440ADF83A00ADF83640ADF83C400CA936
:10068000384600F013FD01228021384600F0A9FD14
:100690000121DFF8CC9107F10408724D084600F003
:1006A00062FC484601F016FD1020CDE902048020CE
:1006B000CDE9044040010694CDE908400A94CDE913
:1006C000008507946946484601F06BFD01213846D4
:1006D00000F066FD012240F22551384600F069FD28
:1006E00026208DF8400002278DF841708DF8426079
:1006F0004FF001088DF8438010A800F03AFE632601
:1007000041F61F450121042000F03FFCADF80050E8
:100710004E4DADF80460ADF80640ADF802406946B4
:10072000284600F072FF01221146284601F055FAD2
:100730001E208DF80C008DF80D808DF80E708DF850
:100740000F8003A800F015FE42480021448028468F
:1007500001F02FFA11B0BDE8F08370B50C460546E4
:10076000002101F054FD2146284601F062FD284693
:10077000BDE87040012101F04ABD0FB4394870B5A1
:1007800005AA049902F010FB3748D0F8841000291C
:10079000FBD1334D334802F077FC84B20021284668
:1007A00001F035FD2146284601F043FD0121284690
:1007B00001F02DFD70BC5DF814FB10B5044600215E
:1007C000224801F00FFC2949088800220A800A8883
:1007D00042EA0400088010BD70B51C4C012120467F
:1007E00001F02CFC002808BF70BD0121204601F05B
:1007F00030FC1F48174B0178E9B11A78521CD2B26D
:100800001A708A4218BF70BD00251D700570588887
:10081000294640F400405880204601F0CAF90021E2
:10082000204601F0DFFB114801880580018841F076
:100830006301018070BD5888002140F40040588059
:100840002046BDE8704001F0B4B900000008004047
:100850000044004016000020480400200008014029
:100860008000024048000020000002402C080040A8
:100870003800002010B56FF0040000F0C4FD2248DD
:1008800022490068B0FBF1F02149C0B200EB400200
:100890000870C2EBC0104FF6FF7202EAC000488039
:1008A00010BD1B49097848434FF0E02148610023FF
:1008B0008B61086940F001000861086910F0010FC0
:1008C00002D010F4803FF8D0086920F001000861E0
:1008D0008B6170470E49498848434FF0E0214861D9
:1008E00000238B61086940F001000861086910F07D
:1008F000010F02D010F4803FF8D0086920F0010009
:1009000008618B61704700000000002000127A002F
:100910001A0000204FF4A06000F024BD7047454944
:100920000A8812F0400FFBD0434AC1B211807047D1
:10093000F0B5054687B0012144F2040000F01CFB2D
:100940003C4E304600F068FB7015ADF810000324F3
:100950008DF812401820394F8DF8130004A938463D
:1009600000F0FDF83015ADF8100004208DF81300EC
:1009700004A9384600F0F3F825208DF814008DF80E
:1009800015408DF8164001208DF8170005A800F0DD
:10099000F0FC0020ADF80400ADF80600ADF808004A
:1009A000ADF80C000C20ADF80A0000956946304601
:1009B00000F07CFB012240F22551304600F0F9FBAB
:1009C0000121304600F0ECFB07B0F0BD10B5194C2A
:1009D00040F22551204600F09BFC002808BF10BDC6
:1009E000204600F034FC164AC1B2108810F4004FC3
:1009F00018BF10BD10F4804F4FF0000306D00A2935
:100A000008BF40F4004012D0138010BD0D2908BF6C
:100A100040F480400BD0C0F30D0C0A4C401C80B257
:100A200004F80C101080C72898BF10BDECE71080A8
:100A300010BD0000003801400438014000080140AA
:100A40001E00002048080020094880470948004748
:100A5000FEE7FEE7FEE7FEE7FEE7FEE7FEE7FEE76E
:100A6000FEE7FEE704480549054A064B70470000CB
:100A70006D020008ED00000870090020700F0020D2
:100A8000700B0020700B002010B5A0F18041B1F573
:100A900084311DD0B1F5806124D0B1F580612BD0B7
:100AA000B1F5806132D0B1F5806139D0B1F58061A6
:100AB00040D0B1F5806118BF10BD0121080200F0DF
:100AC0006DFABDE8104000214FF4807000F066BA66
:100AD0000121042000F062FA0021BDE8104004204A
:100AE00000F05CBA0121082000F058FA0021BDE8AE
:100AF0001040082000F052BA0121102000F04EFAF8
:100B00000021BDE81040102000F048BA012120204B
:100B100000F044FA0021BDE81040202000F03EBA69
:100B20000121402000F03AFA0021BDE810404020A9
:100B300000F034BA0121802000F030FA0021BDE835
:100B40001040802000F02ABA10B50121084600F0BC
:100B500025FA0021BDE81040012000F01FBA2DE960
:100B6000F00191F803C000220CF00F031CF0100FED
:100B70001CBF91F802C04CEA030391F800C04FF08B
:100B80000F071CF0FF0F4FF0010618BF04681CD0C0
:100B90000D8806FA02FC05EA0C05654511D19500A1
:100BA00007FA05F824EA080403FA05F52C43CD7882
:100BB000282D08BFC0F814C003D0482D08BFC0F8C6
:100BC00010C0521C082AE3D304600A88FF2A87BF9A
:100BD00044680022BDE8F001704702F1080C0D885E
:100BE00006FA0CFC05EA0C05654511D1950007FADB
:100BF00005F824EA080403FA05F52C43CD78282DDE
:100C000008BFC0F814C0CD78482D08BFC0F810C088
:100C1000521C082AE1D34460BDE8F00170474FF64A
:100C2000FF710180022181700421C170704702466A
:100C3000002092680A4218BF01207047806880B285
:100C4000704702460020D2680A4218BF0120704750
:100C5000C06880B270470161704741617047002AE7
:100C600014BF016141617047C160704741F4803237
:100C70008261816182618169806970472E4B1A6847
:100C80004FF6807C02EA0C0242EA0010084318602A
:100C900070472A49C861704770B4DFF89CC010F0F3
:100CA000004F14BFDCF81C20DCF80420C0F3034420
:100CB0004FF4401333EA00054FEA50534FEA031351
:100CC00086B206FA03F316D010F4801F08BF9A43C9
:100CD00003D0032505FA04F4A24342F07062002910
:100CE00018BF1A4310F0004F14BFCCF81C20CCF8EA
:100CF000042070BC7047DCF8044022F0706224F0DD
:100D00007064CCF80440EAE78A0721F0030101F19E
:100D1000804101F58031120F0F23D1F808C09340B4
:100D20002CEA03038B608B689040184388607047FF
:100D30000249C1F8DC007047000001400000204279
:100D4000AC48016841F0010101604168AA4A1140C4
:100D50004160016821F4102121F080710160016877
:100D600021F480210160416821F4FE0141604FF4CB
:100D70001F01816070479F490A6822F480320A602F
:100D80000A6822F480220A60B0F5803F04BF086838
:100D900040F4803006D0B0F5802F06BF086840F4DC
:100DA000A02070470860704700224109914B01293B
:100DB00008BF196803D002290CBF196A596A00F0EC
:100DC0001F00012303FA00F0084218BF0122104659
:100DD000704708B50020874A00900020116811F480
:100DE000003F18BF01200099491C0091B1F5A06F88
:100DF00001D00028F1D03120FFF7D6FF002818BF1E
:100E0000012008BD7B4A116821F0F80141EAC000C9
:100E100010607047794908607047764B5A680843FC
:100E200022F47C121043586070477449086670477A
:100E3000704A516821F003010843506070476D48C3
:100E4000406800F00C0070476A4A516821F0F001D8
:100E5000084350607047674A516821F4E0610843D5
:100E600050607047634A516821F4605141EAC00004
:100E7000506070475F4A0029517A14BF084321EA45
:100E80000000507270475D49C1F8D8007047594A58
:100E9000516821F440410843506070475549002291
:100EA00081F8202081F82020012803D004280CBFDD
:100EB0000520704781F8200070475149086070474D
:100EC0004C490A6A1043086270474E4908607047EF
:100ED000484A10B451684C4B11F00C0118BF04295A
:100EE00001D0082901D0036015E05168536801F46E
:100EF00070114FF0020C13F4803F0CEB914103D0C2
:100F0000536813F4003F03D0404B5943016002E0A3
:100F10003D4B5943016051680F23DFF8F4C003EAE9
:100F200011111CF80110036823FA01F141605368A4
:100F3000072404EA13231CF8033021FA03F3836027
:100F4000536804EAD3231CF80330D940C1605268C7
:100F5000032303EA9232ACF104039A5CB1FBF2F191
:100F6000016110BC7047234A0029516914BF08432E
:100F700021EA0000506170471E4A0029916914BFA0
:100F8000084321EA0000906170471A4A0029D1699C
:100F900014BF084321EA0000D0617047154A0029B8
:100FA000D16814BF084321EA0000D0607047114A9D
:100FB0000029116914BF084321EA0000106170473D
:100FC0001449086070470D49C86470470949C871E1
:100FD00070470848416A41F0807141627047054A94
:100FE0000146002092680A4218BF0120704701495B
:100FF00088727047001002400000FFF80000424273
:10100000800442423C04424200127A0000093D0042
:10101000280000204004424210B5A0F18041B1F503
:101020009C3117D011F574411FD0B1F5806127D0E4
:10103000B1F580612FD0B1F5806118BF10BD0121DD
:101040000805FFF7B4FFBDE8104000214FF4801001
:10105000FFF7ADBF01218803FFF7A0FFBDE81040F7
:1010600000214FF48040FFF799BF01214804FFF7AA
:101070009EFFBDE8104000214FF40030FFF797BFFE
:1010800001218804FFF793FFBDE8104000214FF4D1
:101090008020FFF78CBF0121C804FFF788FFBDE85F
:1010A000104000214FF40020FFF781BF30B5044607
:1010B000008A85B00D464CF6FF710840E988084368
:1010C0002082A0894EF6F3110840A9882A8911438D
:1010D0006A8910430843A081A08A4FF6FF41084067
:1010E000A9890843A0826846FFF7F2FEA4F1804078
:1010F000B0F59C300CBF03980298A18911F4004F01
:1011000000EBC00101EB0010296814BF4900890001
:10111000B0FBF1F0924A6FF0180CA2FB00314909C4
:1011200009010B0903FB0CF300EB8300A38913F403
:10113000004F4FF0320314BF03EBC00003EB00106D
:10114000A2FB00204FEA501014BF00F0070000F08F
:101150000F000843208105B030BD4FF416510160E7
:1011600000218180C18001810C22428181817047F0
:10117000028A4FF2FF031A400B88B1F802C043EA1B
:101180000C03B1F804C0C9884CEA010119431143AA
:10119000018270470021018041808180C1807047B9
:1011A0000029818914BF41F4005121F4005181814B
:1011B0007047C1F3421301F01F014FF0010C0CFA0C
:1011C00001F1012B08BF0C3003D0022B0CBF1030F3
:1011D0001430002A026814BF114322EA01010160A1
:1011E0007047002A828A14BF114322EA01018182DA
:1011F0007047028A22F00F020282028A11430182A2
:101200007047828922F40062828182891143818140
:1012100070470029818914BF41F0020121F00201C9
:1012200081817047028A22F020020282028A1143E1
:10123000018270470029018A14BF41F4804121F4E2
:10124000804101827047C1F3080181807047808826
:10125000C0F308007047818941F001018181704726
:10126000028BD2B20283028B42EA012101837047D2
:10127000028B02F47F420283028B11430183704789
:101280000029818A14BF41F0200121F020018182D0
:1012900070470029818A14BF41F0100121F010012C
:1012A000818270470029818A14BF41F0080121F032
:1012B0000801818270470029818914BF41F40041EF
:1012C000C1F30E01818170470029818A14BF41F466
:1012D000006121F4006181827047828A22F0040259
:1012E0008282828A1143818270470029818A14BFD9
:1012F00041F0020121F00201818270470246002084
:1013000012880A4218BF01207047C9430180704704
:1013100010B401F01F020124C1F3421304FA02F2D7
:101320004FF0000C012B04BF83891A4004D0022B1C
:101330000CBF038A838A1A40090A008804FA01F163
:101340000840002A1CBF00284FF0010C604610BC6A
:101350007047090A012202FA01F1C943018070476E
:101360001F85EB512D4940F0FD7040F08060086012
:10137000704710B4C27801784FF00F0C01242AB3E3
:10138000264A126801F1E02102F4E062C2F5E0624F
:10139000120AC2F104032CFA02F290F801C00CFA0E
:1013A00003F390F802C00CEA02021A43120181F81A
:1013B0000024007800F01F0104FA01F140098000C8
:1013C00000F1E020C0F8001110BC704701F01F00D0
:1013D00004FA00F04909890001F1E021C1F8800117
:1013E00010BC704721F07F0121F0604108430C4997
:1013F000086070470B4A0029116814BF084321EAAE
:101400000000106070474FF0E021042808690CBF0D
:1014100040F0040020F00400086170470CED00E08B
:1014200008ED00E010ED00E010B5A0F18041B1F54D
:1014300096313BD0B0F1804F4DD011F5943140D072
:10144000B1F5806151D0B1F5806158D0B1F58061BE
:101450005FD0B1F5806166D0B1F590316DD0B1F556
:10146000C05175D0B1F580617DD0B1F580617DD07E
:1014700011F59E317BD0B1F5806179D0B1F58061F5
:1014800077D0B1F5903175D0B1F5806173D0B1F5F9
:10149000806118BF10BD01218804FFF77FFDBDE802
:1014A000104000214FF48020FFF778BD0121C802D1
:1014B000FFF774FDBDE8104000214FF40060FFF716
:1014C0006DBD01210220FFF772FD0021BDE8104033
:1014D0000220FFF76CBD01210846FFF768FD0021DF
:1014E000BDE810400120FFF762BD01210420FFF795
:1014F0005EFD0021BDE810400420FFF758BD01212A
:101500000820FFF754FD0021BDE810400820FFF738
:101510004EBD01211020FFF74AFD0021BDE810401B
:101520001020FFF744BD01212020FFF740FD0021DE
:10153000BDE810402020FFF73ABD01214803FFF726
:101540002DFDBDE8104000214FF40050FFF726BDEF
:101550000121C804FFF722FDBDE8104000214FF42F
:101560000020FFF71BBD0121080505E00DE017E095
:1015700020E029E033E03DE0FFF710FDBDE810403A
:1015800000214FF48010FFF709BD01214805FFF746
:1015900005FDBDE8104000214FF40010FFF7FEBC30
:1015A00001214020FFF703FD0021BDE8104040204D
:1015B000FFF7FDBC01218020FFF7F9FC0021BDE809
:1015C00010408020FFF7F3BC01210802FFF7EFFC79
:1015D000BDE8104000214FF48070FFF7E8BC012106
:1015E0000804FFF7DBFCBDE8104000214FF4803019
:1015F000FFF7D4BC01214804FFF7D0FCBDE8104040
:1016000000214FF40030FFF7C9BC10B40288DFF8A6
:10161000F0C3FC4B604518BF984211D0B0F1804F29
:101620001CBFA0F18044B4F5806409D0A0F18044CF
:10163000B4F500641CBFA0F18044B4F5406403D14C
:101640004C8822F070022243A0F18044B4F580540B
:101650001CBFA0F18044B4F5A05403D0CC8822F480
:101660004072224302808A8882850A88028560450A
:1016700018BF98420DD0A0F18042B2F5A0321FBF32
:10168000A0F18042B2F5A232A0F18042B2F5A432BC
:1016900001D1097A01860121818210BC704710B402
:1016A000028C22F001020284028C8388B0F818C0F8
:1016B0000C882CF0730C44EA0C0C0C8922F002020A
:1016C00022434C882243A0F18044B4F596341CBFD9
:1016D000A0F18044B4F59A340DD0A0F18044B4F563
:1016E000A0341FBFA0F18044B4F5A234A0F180441F
:1016F000B4F5A4340DD14C8922F0080222438C8821
:1017000022F0040222438C8923F440732343CC89C2
:1017100023438380A0F818C0C9888186028410BC46
:10172000704730B4028C22F010020284028C83884D
:10173000B0F818C00D882CF4E6444FF6FF7C0CEA94
:1017400005252C430D8922F020020CEA05152A43B9
:101750004D880CEA05152A43A0F18045B5F596356C
:101760001CBFA0F18045B5F59A3516D14D8922F000
:1017700080020CEA05152A438D8822F040020CEA0B
:1017800005152A438D8923F440630CEA85052B4314
:10179000CD890CEA850C4CEA030383800483C98855
:1017A0000187028430BC704730B4028C22F480720E
:1017B0000284028C8388B0F81CC00C882CF0730C57
:1017C00044EA0C040D894FF6FF7C22F400720CEA07
:1017D00005252A434D880CEA05252A43A0F18045BA
:1017E000B5F596351CBFA0F18045B5F59A3516D1F3
:1017F0004D8922F400620CEA05252A438D8822F4E3
:1018000080620CEA05252A438D8923F440530CEAB3
:1018100005152B43CD890CEA051C4CEA0303838094
:101820008483C9888187028430BC704730B4028CBD
:1018300022F480520284038C8288B0F81CC00D8888
:101840004FF6FF742CF4E64C04EA052545EA0C0C2F
:101850000D8923F4005304EA05352B434D8804EA2F
:1018600005352B43A0F18045B5F596351CBFA0F199
:101870008045B5F59A3505D18D8922F4804204EA78
:10188000851422438280A0F81CC0C988A0F84010AB
:10189000038430BC7047828B22F440628283828B47
:1018A0004FF6FF7303EA0121114381837047828B56
:1018B00022F00C028283828B114381837047028B5A
:1018C00022F440620283028B4FF6FF7303EA012188
:1018D00011430183704770B4B0F820C02CF0100C95
:1018E000A0F820C0058BB0F820C04FF6FF7625F495
:1018F000734506EA03332B4306EA02221A43A0F19A
:10190000804306EA0114B3F596331CBFA0F180436F
:10191000B3F59A3314D0B0F1804F1CBFA0F18043CF
:10192000B3F580630CD0A0F18043B3F500631FBF13
:10193000A0F18043B3F540632CF0A003194302D11A
:101940002CF02001214341F010010283018470BC7E
:101950007047028B22F00C020283028B1143018339
:1019600070472DE9F05F0D4604460888244FDFF8E4
:101970009480DFF89490DFF894A0DFF894E0498831
:10198000AA882B89002845D04FF6FF7604284DD031
:101990000828208C58D020F480502084B4F81CB043
:1019A000208C2BF4734B06EA022242EA0B0206EA71
:1019B00003331A4306EA013CBC4218BF44450BD02E
:1019C000B4F1804F18BF4C4506D054451EBF744536
:1019D00020F40240084303D120F4005040EA0C00F8
:1019E00040F48050A2832084A879A18B21F4406127
:1019F000A183A18B06EA00200843A083BDE8F09FE5
:101A0000002C014000340140000400400008004068
:101A1000000C0040204600F01FFBE888218B21F0DD
:101A20000C012183218B08432083E7E72046FFF741
:101A300052FFA879218B21F440612183218B06EA92
:101A4000002008432083D9E720F480702084B4F874
:101A50001CC0208C06EA03131A432CF0F30C06EA90
:101A6000012B42EA0C02BC4218BF44450BD0B4F132
:101A7000804F18BF4C4506D054451EBF744520F416
:101A80002060084303D120F4007040EA0B0040F4CA
:101A90008070A2832084E888A18B21F00C01A183AF
:101AA000A18B0843A083A9E72DE9F0410C464988A2
:101AB000012605464FF00008002908BF4FF0020834
:101AC000A288012A08BF02262088238900284FF611
:101AD000FF7728461BD0FFF7FEFEA079298B21F463
:101AE00040612983298B07EA002008432883238942
:101AF00032464146284600F0AFFAE088298B21F0B3
:101B00000C012983298B08432883BDE8F08100F06C
:101B1000A3FAE088298B21F00C012983298B084343
:101B200028832389324641462846FFF7D4FEA07910
:101B3000298B21F440612983298B07EA002008437F
:101B40002883BDE8F0810A884B88B1F806C01A43A3
:101B50008B8843EA0C031A430B891A434B89898902
:101B60001A431143A0F8441070474FF6FF7181806B
:101B700000210180C18041800172704700210180F5
:101B800041808180C180018141818181C181704713
:101B900000210180418001228280C1800181704743
:101BA0000021018041808180C1800181418181814A
:101BB00070470029018814BF41F0010121F00101A3
:101BC000018070470029B0F8441014BF41F400416F
:101BD000C1F30E01A0F844107047002A828914BF97
:101BE000114322EA010181817047818270471143CC
:101BF000A0F848107047002A828914BF114322EAD6
:101C0000010181817047018921F00701018170473D
:101C1000028922F07002114301817047028922F08B
:101C2000700211430181018941F007010181704770
:101C300070B594460D46602904464FF00102614696
:101C40000BD000F009FA208920F070002843208191
:101C5000208940F00700208170BDFFF73CFEF2E7CD
:101C600010B4B0F808C04FF6FF7404EA03231A4317
:101C70000CF0FF0C114341EA0C01018110BC7047CC
:101C800010B4B0F808C04FF6FF7404EA03231A43F7
:101C90000CF0FF0C114341EA0C010181018941F074
:101CA0007701018110BC704710B4B0F808C04FF63E
:101CB000FF7404EA03231A430CF0FF0C114341EABA
:101CC0000C010181018941F48041018110BC704700
:101CD000018582827047028822F0700211430180E0
:101CE000704730B40589B0F818C0048C25F007059A
:101CF00029432CF0030C2CF4407C40F201154CEAF3
:101D0000050C4FF6FF7505EA031324F022041A436D
:101D100022430181A0F818C0028430BC7047028BB6
:101D200022F07002114301837047028B4FF6FF735C
:101D300022F4E04203EA0121114301837047828BC0
:101D400022F07002114381837047828B4FF6FF733C
:101D500022F4E04203EA0121114381837047002904
:101D6000018814BF41F0800121F08001018070479B
:101D70000029818814BF41F0040121F00401818011
:101D800070470029818814BF41F0080121F0080143
:101D9000818070470029818814BF41F0010121F042
:101DA000010181807047028B22F0080211430183F8
:101DB0007047028B4FF6FF7322F4006203EA0121A1
:101DC000114301837047828B22F008021143818303
:101DD0007047828B4FF6FF7322F4006203EA012101
:101DE000114381837047028B22F004021143018367
:101DF0007047028B4FF6FF7322F4806203EA0121E1
:101E0000114301837047828B22F0040211438183C6
:101E10007047828B4FF6FF7322F4806203EA012140
:101E2000114381837047028B22F0800211430183AA
:101E30007047028B4FF6FF73C2F30E0203EA0121D3
:101E4000114301837047828B22F08002114381830A
:101E50007047828B4FF6FF73C2F30E0203EA012133
:101E6000114381837047028C22F0020211430184E6
:101E70007047028C22F00802114301847047028CE3
:101E80004FF6FF7322F0200203EA0111114301848F
:101E90007047028C4FF6FF7322F0800203EA0111B3
:101EA000114301847047028C4FF6FF7322F40072D5
:101EB00003EA0121114301847047028C4FF6FF733E
:101EC00022F4006203EA0121114301847047028C6D
:101ED0004FF6FF7322F4005203EA013111430184EB
:101EE00070470123B0F820C08B402CEA0303038421
:101EF000038C02FA01F11943018470470423B0F8FE
:101F000020C08B402CEA03030384038C02FA01F106
:101F100019430184704710B44FF0010C048C00F198
:101F200018030CFA01FC24EA0C0CA0F820C00029CC
:101F300018BF082910D0081FC0F34E0018440168CC
:101F400021F4E041016001684FF6FF7303EA0222C9
:101F50001143016010BC704703EB5100016821F090
:101F60007001016001681143016010BC70470029D5
:101F7000018814BF41F0020121F002010180704785
:101F80000029018814BF41F0040121F004010180FF
:101F900070470029818814BF41F0800121F0800141
:101FA00081807047028822F0080202800288114373
:101FB00001807047828822F07002828082881143FB
:101FC00081807047028922F0070202810289114351
:101FD00001817047028922F0800202810289114347
:101FE0000181704781847047818570478186704781
:101FF0000187704781877047A0F8401070470288BA
:1020000022F4407202800288114301807047808E62
:102010007047008F7047808F7047B0F8400070475E
:10202000808C7047008D704702460020128A0A4259
:1020300018BF01207047C94301827047038A0022FC
:1020400080890B4200EA01001CBF002801221046D3
:102050007047C9430182704730B4B0F820C02CF0FB
:10206000010CA0F820C0048BB0F820C04FF6FF751B
:1020700005EA03131A4324F0F3042243A0F180433A
:10208000B3F596331CBFA0F18043B3F59A331AD051
:10209000B0F1804F1CBFA0F18043B3F5806312D034
:1020A000A0F18043B3F500631CBFA0F18043B3F5FA
:1020B000406308D02CF00A03194341F00101028368
:1020C000018430BC70472CF00203194341F0010138
:1020D000F5E7000002684FF6FE7111400160002133
:1020E000016041608160C160684A6949904204BFF3
:1020F000486840F00F0022D0664A904204BF48680A
:1021000040F0F0001BD0644A904204BF486840F49D
:10211000706014D0614A904204BF486840F4704037
:102120000DD05F4A904204BF486840F4702006D04A
:102130005C4A904204BF486840F4700001D1486096
:102140007047594A904204D1486840F07060486036
:102150007047564A111F904204BF086840F00F00B4
:1021600014D0534A904204BF086840F0F0000DD0EC
:10217000504A904204BF086840F4706006D04E4A4E
:10218000904204BF086840F4704001D10860704775
:102190004A4A904218BF7047086840F470200860AF
:1021A000704710B40268D1F820C08B686FF30E122C
:1021B00043EA0C03D1E904C44CEA040C43EA0C03DF
:1021C000D1F818C043EA0C03D1F81CC043EA0C0351
:1021D000D1F824C043EA0C03D1F828C043EA0C0329
:1021E0001A430260CA6842600A6882604968C16036
:1021F00010BC70470021016041608160C1600161D5
:1022000041618161C161016241628162704700295F
:10221000016812BF41F001014FF6FE7211400160EA
:102220007047002A026814BF114322EA01010160CD
:10223000704741607047406880B27047002210F0DC
:10224000805F14BF1E4912490968014218BF01226C
:102250001046704710F0805F19BF1A4908600C499A
:1022600048607047002210F0805F14BF144908498D
:102270000968014218BF01221046704710F0805FC4
:1022800019BF1049086002494860704708000240C1
:10229000000002401C0002403000024044000240A6
:1022A000580002406C0002408000024008040240D6
:1022B0001C0402403004024044040240580402401E
:1022C000000402400404024070B5FF4C054621881A
:1022D00011F4004F08BF70BD0026C1F30E00FB498A
:1022E0000E54FBA000F072FD002D18BF268070BDBB
:1022F0000146F54810B50088002210F4004F07D0C1
:10230000F24BC0F30E001A54184600F0ABFE024622
:10231000104610BD2DE9F0470025DFF8AC831446C8
:102320000E4602462F46A8F80050FF2898BFE948FD
:1023300006D8D0F884100029FBD1E748028003E0DA
:102340000146E6A0FEF719FADFF89893A4F580603D
:102350004C3806D10B2089F8000042F20F70FEF7CE
:102360002CFA002E18BF002C2ED0601E0404240C62
:1023700018BFDFF858A326D099F8010028B1002033
:10238000FEF75FF80546032816D00A20FEF7A2FAEA
:10239000B8F8000010F4004F11D0C0F30E00314621
:1023A0000AF80070C94800F05DFE002808BFA8F8D0
:1023B000007004D03CB107E00220BDE8F087601E49
:1023C0000404240CD8D101252846BDE8F0872DE966
:1023D000F04705004FF0010618BF00292BD0481E1A
:1023E0000404240C26D0DFF8E492B74F4FF0000825
:1023F0000020FEF726F8032815D00A20FEF76AFA17
:102400003A8812F4004F11D0C2F30E00294609F8A1
:102410000080AE4800F026FE002808BFA7F8008024
:1024200004D03CB107E00220BDE8F087601E040440
:10243000240CDDD100263046BDE8F0872DE9F74FAA
:10244000B4B0824693460027642101A800F03BFE09
:1024500064211AA800F037FE0025A8462C462E4617
:102460005B46A1A101A8359A00F0BCFC9648A9469C
:10247000A3A1A0F80090CDF800B0DFF880B201A8C9
:10248000359B5BF82A2000F0ADFC4FF4FA72A3A153
:1024900001A8FFF73FFF00280EBFDFF82CB237B0CE
:1024A000BDE8F08F002211461B20FFF733FF9C4848
:1024B000A0FB05100009404200EB800015EB8000F6
:1024C0001CD048E0012CEDD14FF4FA7295A196A0F2
:1024D000FFF720FF0028E5D11AA980A0FEF74DF9EB
:1024E0003220FEF7F7F94FF47A7292A11A20FFF723
:1024F00011FF4FF4FA70FEF7EDF9D8E78F49D1F8E4
:10250000B401002814BF00200120C1F8B40108F173
:10251000010000F0FF08022C01D0082E13D94FF45F
:10252000FA7287A189A0FFF7F5FE4FF4FA728BA12A
:102530008CA0FFF7EFFE4FF4FA7278A101A8FFF725
:10254000E9FE002426466D48434689A150F82A201A
:102550001AA800F047FCF4B98B48A0FB05108009CD
:102560006FF01801484315EBC0002DD14FF4FA72FB
:102570006AA186A0FFF7CEFE88A1544800F072FD44
:10258000002818BF022487A1504800F06BFD0028E6
:1025900018BF012401D1012C16D1B5F5167F13D334
:1025A0000025C8225FA160A0FFF7B4FE2A460028DC
:1025B000114618BF1B2044D0FFF7ACFE701CC6B2FA
:1025C00031467BA000F002FC0A20FEF783F9BBF83D
:1025D000000010F4004F28D0C0F30E013B4800F873
:1025E000019001463AA000F0F1FB36B151A1374805
:1025F00000F038FD002818BF002672A1334800F013
:1026000031FD009078B171A100F02CFD339070A1E4
:10261000009800F027FD80F8009033986DA1421CCF
:102620001AA800F0DFFBABF80090681C85B2781C9C
:10263000C7B20A2F7FF646AF00276BA0FEF79DF8C2
:1026400040E70020FFF766FE2820FEF743F900224E
:1026500011461A20B0E72DE9F84F65A00FF2A81B2C
:102660004FF0000A00905446642235A137A0FFF7CE
:1026700051FE642239A13BA0FFF74CFE4FF47A7261
:1026800026A163A0FFF746FE00281CBF0120BDE87D
:10269000F88F4FF47A7221A161A0FFF73BFE00286A
:1026A0001CBF0220BDE8F88F4FF4FA721BA163A093
:1026B000FFF730FE00281CBF0320BDE8F88F4FF461
:1026C000FA7216A160A0CBE0180000204804002098
:1026D00025730000000002400444004025730D0AE9
:1026E00000000000380000204950B5D8D6B73A2580
:1026F0007320B6CBBFDA3A25730000003C000020FF
:1027000041542B43495053544152543D2225732286
:102710002C222573222C2225732200004F4B00000F
:10272000CDCCCCCC3E00000041542B434950534506
:102730004E44000053454E44204F4B0000002242BF
:10274000434C4F5345204F4B0000000041542B4356
:102750004950434C4F53453D3100000053485554B8
:10276000204F4B0041542B434950534855540000CF
:1027700041544B2D53494D38303043202573B2E23C
:10278000CAD42025642020001F85EB5141542B43DF
:10279000495053544154555300000000434C4F538B
:1027A00045440000434F4E4E454354204F4B0000DC
:1027B0006862656174657272636E743A25640D0AAD
:1027C000000000002B495044000000002C000000D5
:1027D0003A000000CAD5B5BD2573D7D6BDDA2CC4E2
:1027E000DAC8DDC8E7CFC20041540D0A000000007E
:1027F0003230386C3877313833382E35316D797066
:10280000632E636E0000000034383433380000005B
:1028100041542B4347434C4153533D224222000035
:1028200041542B434744434F4E543D312C22495091
:10283000222C22434D4E45542200000041542B438C
:10284000474154543D31000041542B4349504353B8
:1028500047503D312C22434D4E455422000000008C
:10286000FFF758FD00281CBF0420BDE8F88F4FF487
:10287000FA72AFF25811E3A0FFF74CFD00281CBF1D
:102880000520BDE8F88FE34FDFF88C83E34EDFF8D7
:102890009093002574B3E2490020E4FB091000097D
:1028A0006FF012014843E04224D05A465046009946
:1028B000FFF7C4FD601CC4B2142C11D00A20FEF72F
:1028C00009F8308810F4004FE4D0C0F30E00D2496C
:1028D00008F80050AFF2082000F078FA3580D9E708
:1028E000D7F8B4010024002814BF00200120C7F845
:1028F000B401E3E70020BDE8F88F70B58EB0002486
:10290000009401940294C54D039404940594069494
:102910000794089409940A940B940C942C80C82270
:10292000AFF20821BFA0FFF7F5FCBB4E50B9BFA125
:10293000B01C00F097FB0470B21CBDA1684600F00B
:1029400051FA2C80C822AFF22C21BCA0FFF7E2FC88
:1029500050B9B6A1B01C00F085FB0470B21CB9A13F
:10296000684600F03FFA2C80C822AFF25021B8A090
:10297000FFF7D0FC50B9ADA1B01C00F073FB0470A0
:10298000B21CB5A1684600F02DFA2C80C822B5A172
:10299000B6A0FFF7BFFC00281CBF0EB070BDAFF2A1
:1029A000D4119D4800F05EFB0646AFF27411801C06
:1029B00000F058FB0470B21CAEA1684600F012FA99
:1029C0002C800EB070BDF0B500248DB0934F0094F4
:1029D0000194029403940494059406940794089433
:1029E00009940A940B940C9425463C80C822AFF2BB
:1029F000D421A3A0FFF78EFC002818BF01253C803E
:102A0000C822AFF2E821A1A0FFF784FC002818BF7C
:102A100045F0020520D0C8229FA1A1A0FFF77AFCB3
:102A2000002818BF45F004052AD0C8229EA1A0A006
:102A3000FFF770FC002818BF45F0080531D0C82208
:102A40009DA19FA0FFF766FC002818BF45F0100568
:102A50003CD00DB02846F0BDAFF224216E4800F006
:102A600001FB06000AD0AFF23021701C00F0FAFA28
:102A70000470721C95A1684600F0B4F93C80CAE766
:102A800086A1654800F0EEFA0646AFF2C02100F0DC
:102A9000E9FA0470B21C90A1684600F0A3F93C80EA
:102AA000C3E7AFF2D8215C4800F0DCFA0646AFF28B
:102AB000E421401C00F0D6FA04704471431C721CDF
:102AC00088A1684600F08EF93C80B8E7AFF2982103
:102AD000514800F0C7FA064670A1401C00F0C2FA47
:102AE000C470721C84A1684600F07CF93C80B0E799
:102AF00010B5C82283A184A0FFF70CFCC82281A1D5
:102B000089A0FFF707FCC82200218EA0FFF702FC76
:102B10000520FDF7DFFEC8227AA18EA0FFF7FAFBA1
:102B2000C82278A18FA0FFF7F5FBBDE810404FF455
:102B3000167293A195A0FFF7EDBB00242546322025
:102B4000FDF7C8FE64226FA192A0FFF7E3FB50B12E
:102B50004FF49660FDF7BEFE64226AA18DA0FFF7D8
:102B6000D9FB0028F4D1C82266A18BA0FFF7D2FBC5
:102B70001E212820FFF7C1FEFFF7BAFFDFF898906B
:102B8000264FDFF81CA2DFF88C8000260A20FDF714
:102B9000A1FE388810F4004F09D0C0F30E001E4982
:102BA00009F80060AFF2D84000F010F93E803DB166
:102BB000FFF751FD1E212820FFF79FFE00240FE0A4
:102BC000002C18BF002D0BD0AAFB041000094042B6
:102BD00000EB800014EB80000BD0601CC4B2D5E782
:102BE000E1212820FFF7EFFE00280CBF012500257A
:102BF000EAE7D8F8B401002814BF00200120C8F883
:102C0000B401EAE741542B434950484541443D3122
:102C100000000000000022424804002018000020AC
:102C2000E53594D741542B43474D49000D0A000028
:102C3000D6C6D4ECC9CC3A257300000041542B43CE
:102C4000474D4D00C4A3BFE9D0CDBAC53A257300A6
:102C500041542B4347534E00D0F2C1D0BAC53A2558
:102C6000730000002B434E554D00000041542B4390
:102C70004E554D00B1BEBBFABAC5C2EB3A25730042
:102C800041542B4350494E3F0000000041542B4318
:102C90004F50533F000000002B4353513A000000B7
:102CA00041542B43535100002B4342433A00000050
:102CB00041542B43424300002B43434C4B3A00000A
:102CC00041542B43434C4B3F00000000D4CBD3AACC
:102CD000C9CC3A2573000000D0C5BAC5D6CAC1BF59
:102CE0003A257300B5E7B3D8B5E7C1BF3A257325D8
:102CF00025202025736D5600C8D5C6DACAB1BCE4BC
:102D00003A2573004F4B000041542B53415042521F
:102D10003D332C312C22436F6E74797065222C2246
:102D2000475052532200000041542B53415042520D
:102D30003D332C312C2241504E222C22434D4E4506
:102D40005422000041542B53415042523D312C310A
:102D50000000000041542B434E54504349443D3140
:102D60000000000041542B434E54503D223230327B
:102D70002E3132302E322E313031222C33320000BF
:102D80002B434E54503A20310000000041542B4355
:102D90004E545000415400004154453000000000A2
:102DA000CDCCCCCC704700001CB50C46064B7B4408
:102DB00069460090204600F05CFA0446002069460F
:102DC00000F06AFA20461CBDE70400000FB4044975
:102DD00010B503AA029800F07BFA10BC5DF814FB52
:102DE000200000200FB41CB5084B06AA7B4469469E
:102DF0000090059800F03DFA04460020694600F076
:102E00004BFA20461CBC5DF814FB0000A90400002E
:102E100070B50C460546012A05D02878800600D5F5
:102E2000EA69002302E0012305E05B1C934202D221
:102E3000E05C0028F9D1A869E618C01AA861286AE0
:102E400018442862284600F069F904E0D5E9012118
:102E500014F8010B9047B442F8D3284600F074F9F7
:102E600070BD00002DE9F041064600241068752968
:102E7000314616A510D000F078F9002802DA404259
:102E800013A507E031688A0701D512A502E04907BA
:102E900004D511A5012401E000F070F900210A22F7
:102EA00006F1240709E0B0FBF2FCB0FBF2F302FBF1
:102EB0001C00303078541846491C0028F3D12346B2
:102EC0002A463046BDE8F04100F061B9000000003C
:102ED0002D0000002B000000200000002DE9F05F15
:102EE000894604464FF0000ADFF874B1FB44C0F88D
:102EF00020A02046E1688847002874D0252806D005
:102F0000D4E901219047206A401C2062F1E70026A5
:102F10005F462046E16888472028054607DB312DBB
:102F200005D2781910F8200C08B10643F1E7B00774
:102F300001D526F00406C4F81CA00027C4F818A088
:102F40002A2D09D0284601F07CFA38B304EB870813
:102F5000303DC8F8185019E059F8041B204604EB1E
:102F600087029161E1688847012F054618D1E06921
:102F7000002820DA26F020061DE0D8F8180000EB23
:102F8000800005EB40003038C8F818002046E168A2
:102F90008847054601F055FA0028EED1012F0AD0E6
:102FA0002E2D08D12046E16888477F1C0546022F58
:102FB00046F02006C4DBA069002803DA404246F050
:102FC0000106A061F00701D026F010066C2D0BD091
:102FD000682D09D04C2D39D06A2D35D0742D35D0BF
:102FE0007A2D33D016E038E0E1682F462046884736
:102FF000B842054609D16C2F26D04FF48060E168B5
:10300000064320468847054604E06C2F1AD04FF44B
:10301000807006430DB3A5F14100192802D8203570
:1030200046F400664A462946204626604E46FDF78D
:1030300097F880B101280BD0F61D26F0070000F1AB
:10304000080956E74020E4E78020D8E70020D6E7CB
:1030500006F104094DE7284652E7206ABDE8F09FD3
:10306000BC15000030B505460B462A4613F8014B47
:1030700012F8010B08B1A042F8D01CB1002802D010
:103080006D1CF1E7284630BD10B5431C02E010F876
:10309000011B71B18107FAD14FF0013202C88C1ABD
:1030A0008C4314EAC211F9D0C01A0A0603D0C01E1C
:1030B00010BDC01A10BD0A0401D0801E10BD090247
:1030C000FCD0401E10BD4FF0000200B513469446E0
:1030D0009646203922BFA0E80C50A0E80C50B1F170
:1030E0002001BFF4F7AF090728BFA0E80C5048BF84
:1030F0000CC05DF804EB890028BF40F8042B08BF22
:10310000704748BF20F8022B11F0804F18BF00F81D
:10311000012B7047704770477047704770B5044681
:1031200085690068C10601D5302600E02026C00769
:1031300007D070BDD4E9012130469047206A401C79
:1031400020626D1EF6D570BD70B5044685690078A5
:10315000C00707D170BDD4E9012120209047206A23
:10316000401C20626D1EF6D570BD09684A0501D568
:1031700040B27047C905FCD500B2704709684A05DE
:1031800001D5C0B27047C905FCD580B270472DE9A2
:10319000F0470D4699469246044600F1240801681E
:1031A000880604D5E06921F01001216000E00120CB
:1031B000A84201DD471B00E00027A1697A1902EB54
:1031C0000900081AA0612078C00602D42046FFF743
:1031D000A5FF002608E0D4E901211AF8060090476F
:1031E000206A401C761C20624E45F4DB2078C00625
:1031F0000AD52046FFF792FF06E0D4E901213020EE
:103200009047206A401C2062381EA7F10107F4DCB9
:1032100007E0D4E9012118F805009047206A401C16
:103220002062281EA5F10105F3DC2046FFF78CFF84
:103230002078000602D50220BDE8F0870120FBE7D8
:1032400011680268006A530501D508700AE0D305C9
:1032500001D5088006E0130603D5C217C1E90002B4
:1032600000E008600120704701694A1C026108788B
:10327000704700B58FB0CDE90131002105910549B6
:103280007944CDE9031011466846FFF727FE0FB0D9
:1032900000BD0000E5FFFFFF0A6802F8010B0A60AD
:1032A000704710B5436913B1AFF3008001E0FFF739
:1032B000AFFD012010BD127800F124010A70002238
:1032C0004A700122EDE711684FF0FF32E9E7000094
:1032D000074B70B50D467B44FFF7CBFF04462846ED
:1032E00000F08EFB10B14FF0FF3070BD204670BD76
:1032F00045D6FFFF2DE9FF5F15468A460446DFF8F5
:10330000AC80F8440027D8E900103E46CDE9001013
:1033100010E03AF816106A4602A800F075FB411C4E
:1033200007D02178890603D5E269391891420DD872
:103330000744761C2078800602D5E069B84205DD96
:10334000AE42E6DB3AF816000028E2D1A069C01BC5
:10335000A0612046FFF7E2FED8E90010CDE9001099
:10336000002017E03AF818106A4602A800F04CFB5B
:10337000B0F1FF3F81460BD000250DF1080B05E0B1
:10338000D4E901211BF8050090476D1C4D45F7D38A
:1033900008F10100B0428046E4DB206A3844206234
:1033A0002046FFF7D1FEBDE8FF9F0000BA110000E4
:1033B0002DE9F0418046D21D22F007020025D2E916
:1033C0000002F52915A614D0011E72F1000106DADB
:1033D0000023D0EB030063EB020211A608E0D8F84B
:1033E00000108B0701D50FA602E0490701D50EA6F4
:1033F00001251146002408F1240704E000F098F8A4
:1034000030323A55641C50EA0102F7D12B4632465D
:1034100021464046BDE8F041FFF7B9BE000000007C
:103420002D0000002B0000002000000030B400211F
:1034300000F1240408E002F00705D208303542EA22
:103440004372DB086554491C52EA0305F3D1046852
:10345000002310A2250708D504F020040C4304D053
:10346000C46901230CA2641EC46130BCFFF78FBE87
:1034700010B5044621461068FFF780FE024620463C
:10348000BDE810400023D1E7D21D22F00701D1E9A9
:103490000023CBE70000000030000000F0B40D4630
:1034A0000188090502D5214C7C4402E01F4C7C4474
:1034B0000E34002100F1240608E002F00F07120983
:1034C000E75D42EA03721B097754491C52EA03077D
:1034D000F3D102780023120704D5702D06D009B16C
:1034E000022311342246F0BCFFF751BE01231034F1
:1034F000F8E770B504460D4621461068FFF73EFE1A
:10350000024629462046BDE870400023C6E7D21D8A
:1035100022F00703D3E90023C0E70368126843F0F1
:10352000200303600823C3610023B7E71C100000D9
:1035300030B5B0F10A024FEA900E71F100034EEA85
:10354000817EB0EB0E0061EB91014FEA101E4EEA56
:10355000017E10EB0E0041EB11114FEA102E4EEAE6
:10356000016E10EB0E0041EB11214FEA104E4EEAB6
:10357000014E10EB0E0041EB1141401841F10001EA
:103580004FEAD00040EA41704FEAD10110EB8005CC
:103590004FEA810444EA907444EB01046D1944EB52
:1035A0000404521BA3414FF0000348BF0A3200D568
:1035B00030BD401C41F1000130BD70472DE9FF4F87
:1035C0000C461E464FF0FF378BB0D2E90001DDF804
:1035D00060800A908A46C1F30A5505B93D4600212C
:1035E00008464FF00000BAF1000F00F4400005DA81
:1035F00000EB80004FF4400101EA50004FEA90597F
:10360000B9F1010F00DDB9460A9850EA4A000ED020
:1036100044F61050A5F2FF3545432F14B8F1000FC2
:103620001ED07542291E1EDDC9F100021CE0B8F152
:10363000010F4FF0000001D0302103E0F24305E01C
:103640002154401CB042FBDB3046002200212154B3
:103650000B99C1F80880C1E900200FB0BDE8F08FD8
:10366000BD1B6D1CDEE74A4600DA694206A800F081
:103670005DFA06AB93E8070003AB83E8070050460A
:103680000A9900F00FFB8DE80700A0F500501F38E5
:1036900000900398002D09DD42F21F014A460844BC
:1036A00003A90390684600F06EFD08E0A0F5005005
:1036B0004A461F3803A90390684600F078FD8DE85C
:1036C00007000004000C03D04FF0FF30410800E079
:1036D0001046B8F1000F03D00022009215461EE0FC
:1036E000751E05D4FFF724FF303262556D1EF9D5E3
:1036F000B3460122084302D000227F1C04E0207858
:10370000302801D100227F1E002A099786D01DE0B3
:10371000112D07DAFFF70CFF303262556D1C50EAAD
:103720000102F5D1084302D00098C8B10EE0002193
:10373000681E05E0235C625C63542254401E491CF1
:103740008142F7DBAB46A81B401E0990002004F81D
:103750000B000B98099AC0F80880C0E9002B7CE7A1
:1037600011264FF0000859E72DE9F04F884604462E
:10377000D21D22F0070191B0D1E90001CDE90A0183
:1037800000F04BFE02460B98C00F01D02D2007E041
:103790002068810701D52B2002E0202101EAC0002A
:1037A000032A099001D0072A05DB0346414620463B
:1037B00000F07CF90BE12078800601D5E06900E09B
:1037C0000620B8F1650F814606D0B8F1660F18D013
:1037D000B8F1670F70D131E00020B9F1110F0090FE
:1037E00001DB112301E009F101030AAA01A90CA8D8
:1037F000FFF7E4FEDDE90C70002609F101058346C0
:1038000047E001204B4600904FF000470AAA01A96B
:103810000CA8FFF7D3FEDDE90DB00C995D4600263C
:1038200010B909F101000D18B9EB050003D4C0F17E
:10383000FF3609F10105A5EB09002BE0B9F1010FF5
:1038400001DA4FF001090020B9F1110F009048464C
:1038500001DD112300E003460AAA01A90CA8FFF725
:10386000ADFEDDE90C704D4600268346207800074A
:103870000AD4AB4500DA5D4601A8012D04DD4119EB
:1038800011F8011C302907D04F4502DA17F1040F57
:1038900004DA012082460FE06D1EEEE7002F02DC05
:1038A000ED1B3E4403E0781CA84200DD7D1CB81BE4
:1038B00000F1010A4FF000472078000703D4AA4521
:1038C00001DB4FF0FF3A0021B7F1004F0DF1430843
:1038D0008DF8431024D002202B23002F01DA7F42E1
:1038E0002D230A21021EA0F1010000DC5FB197FB2D
:1038F000F1FC97FBF1F201FB1C7C17460CF1300C3C
:1039000008F801CDEEE7A8F1010003702188090550
:1039100001D5452100E06521A0F1010800F8011C56
:1039200009980FA9A1EB0807FF1D00B1012041195B
:1039300001EBEA70A1693844081A401EA0612078A2
:10394000C00602D42046FFF7E9FB099828B1D4E964
:1039500001219047206A401C20622078C00622D5B1
:103960002046FFF7DBFB1EE0002E04DBB34502DD43
:1039700001A8805D00E03020D4E901219047206A51
:10398000401C2062761CAAF101005FEA000A0AD1FD
:1039900000F088F8C0680168405CD4E901219047D4
:1039A000206A401C2062281EA5F10105DCDC07E02E
:1039B000D4E9012118F8010B9047206A401C2062CD
:1039C000381EA7F10107F3DC2046FFF7BDFB0320FB
:1039D00011B043E610B5436913B1AFF3008001E0C5
:1039E000FFF788FC012010BD128800F124018284B9
:1039F0000022C2840122EDE711684FF0FF32E9E7AF
:103A0000007B00F08000704770B516460C460546F6
:103A100000F040F8036893F80101012806D0FF2C5C
:103A20000FD8185D68B101202C7070BDD3F8070164
:103A30003246214603F2071303442846BDE870408E
:103A400018474FF0FF3070BD754600F0E7F8AE46FE
:103A500005006946534620F00700854618B020B59A
:103A6000FDF700F8BDE820404FF000064FF00007DA
:103A70004FF000084FF0000B21F00701AC46ACE816
:103A8000C009ACE8C009ACE8C009ACE8C0098D4683
:103A90007047000010B500F005F8001D10BD00BF14
:103AA000DD09000000487047300900202DE9F04191
:103AB0001F46044603260168072A01F4006004DB60
:103AC00008B116A505E016A503E008B115A500E0AC
:103AD00015A521F010002060A069C01EA0610FB1E3
:103AE000401EA0612046FFF719FB4FB1D4E9012128
:103AF00038469047206A401C2062C01C206206E0C5
:103B0000206AFAE7D4E9012115F8010B9047761EE7
:103B1000F8D22046FFF718FBBDE8F0814E414E0079
:103B20006E616E00494E4600696E66002DE9F047F1
:103B3000814616468AB0334878440DC88DE80D009A
:103B400030487844801C03AC0DC884E80D0041F671
:103B50009B300844372190FBF1F290FBF1F5A5F181
:103B6000800501FB12041B3C02D56442012000E0E9
:103B70000020DFF890A080460027FA44AAF1BE0A90
:103B80000DE0E00709D03246684607EB47010AEB33
:103B9000810100F00CFB8DE8070064107F1C002CF5
:103BA000EFD1184F7F44AC3F18E0E80714D007EB83
:103BB00004100DF1180A90E80E008AE80E00C068A3
:103BC000F04201D198190890324606A903A800F0E6
:103BD000EEFA03AB83E807006D10641C002DE4D1FE
:103BE00032466946B8F1000F03A802D000F0CBFAC4
:103BF00001E000F0DCFAC9E90001C9F808200AB0C8
:103C0000BDE8F087300A000010B50446AFF300802D
:103C10002046BDE81040FCF706BB00000048704796
:103C2000100900204FF0013C50F8042B51F8043BE0
:103C30009A4221D1A2EB0C03934313EACC1317D180
:103C400050F8042B51F8043B9A4215D1A2EB0C0317
:103C5000934313EACC130BD150F8042B51F8043BD7
:103C60009A4209D1A2EB0C03934313EACC13DBD0A5
:103C70004FF00000704700BFD01A01BAB1FA81F1CD
:103C800001F0180122FA01F0CB40C1F12001DBB2B2
:103C9000C0B2C01A2CFA01F3D11A914311EAC31130
:103CA000E6D170475FEA400C08BF91F0000F4FEA81
:103CB0008C234FEAC12243EA51514FEA1C5018BFEE
:103CC00000F5F0404FEA300018BF41F000415FEAD4
:103CD0006C5C00F02980BCF1FF3F08BF40F08040E1
:103CE0007047130C06BF12044FF0100C4FF0000C7D
:103CF000130E04BF12020CF1080C130F04BF1201C3
:103D00000CF1040C930F04BF92000CF1020CD30FC2
:103D100004BF52000CF1010C11464FF00002A0F15B
:103D20001F00A0EB0C00704711F0004F08BF704758
:103D300031F000413FF4D5AF0B0C06BF09044FF042
:103D4000100C4FF0000C0B0E04BF09020CF1080C14
:103D50000B0F04BF09010CF1040C8B0F04BF890089
:103D60000CF1020CCB0F04BF49000CF1010CCCF19B
:103D70002003A0EB0C0022FA03F302FA0CF241EA52
:103D8000030100F10100704720F07F4C80EA03003E
:103D900023F07F47ACEB070303F57C5300F00040B2
:103DA00003F1FF032DE980494FEA154B09B44FEAAF
:103DB000144325EA0B4E24EA03480FF2042606EBCF
:103DC000132749083E785FEA320203FB0667C7F50E
:103DD000000707FB06F64FEA54374FEAD64606F1CE
:103DE000020607FB066CCCF1005C4FEA1C472CEA8C
:103DF000074C07FB06F40CFB06F504EB15464FEAEF
:103E0000961634BF00204FF000404FEAD13706FB32
:103E100007FC4FEA1C4C0CFB0BF7D21B03FB0CF707
:103E200061EB07010CFB0EF7B0EB074072EB17429A
:103E30000CFB08F734BFA2EB0742B2EB074261EB81
:103E400017414FEA0C444FEA910706FB07FC4FEA83
:103E50001C4C0CFB0BF7B0EBC74072EB573203FB6B
:103E60000CF734BFA2EBC742B2EBC74261EB57314C
:103E70000CFB0EF7B0EBC70072EB57720CFB08F7A8
:103E800034BFA2EBC702B2EBC70261EB5771039FCD
:103E90004FEA816141EA921104EBCC044FEAD13739
:103EA0004FEA826206FB07FC42EA90124FEA80600A
:103EB0004FEA1C4C0CFB0BF7D21B03FB0CF761EB1E
:103EC00007010CFB0EF7B0EB074072EB17420CFB3F
:103ED00008F734BFA2EB0742B2EB074261EB174190
:103EE0004FEA8C554FEA910704EB9C2406FB07FC34
:103EF0004FEA1C4C0CFB0BF7B0EBC74072EB573290
:103F000003FB0CF734BFA2EBC742B2EBC74261EB35
:103F100057310CFB0EF7B0EBC70072EB57720CFB7E
:103F200008F734BFA2EBC702B2EBC70261EB5771CF
:103F300015EB4C254FEA816141EA92114FEA82620A
:103F40004FEAD13742EA901206FB07FC44F1000425
:103F50004FEA80604FEA1C4C0CFB0BF7D21B03FBB3
:103F60000CF761EB07010CFB0EF7B0EB074072EBAF
:103F700017420CFB08F734BFA2EB0742B2EB074233
:103F800061EB174115EB1C154FEA813141EA924173
:103F90004FEA823242EA90424FEA80304FEA0C7692
:103FA00044F1000448EA03434EEA0B484FF0000E88
:103FB000B2EB080C71EB030724BF624639464EEBA7
:103FC0000E0E4FF0000B0018524149414BEB0B0B0A
:103FD000B2EB080C71EB03077BF1000B24BF6246C8
:103FE00039464EEB0E0E4FF0000B0018524149417E
:103FF0004BEB0B0BB2EB080C71EB03077BF1000BE7
:1040000024BF624639464EEB0E0E51EA020718BF36
:1040100046F0010616EB0E7655F1000254F1000150
:1040200003D5BDE88901BDE80088BDE88901BDE888
:104030000048B619524141EB0101A3F10103704759
:1040400080807F7E7D7C7B7A7978777676757473D5
:10405000727171706F6E6E6D6C6C6B6A6A69686894
:10406000676666656464636362616160605F5F5E2A
:104070005E5D5D5C5C5B5B5A5A59595858575756A0
:104080005655555554545353525252515150505005
:104090004F4F4F4E4E4D4D4D4C4C4C4B4B4B4A4A57
:1040A0004A4949494848484747474746464645459B
:1040B00045444444444343434342424242414141D4
:1040C000002B26D4770021D01CB54FEA370703B464
:1040D0004FF010004FF010014FF000000FBCBDE892
:1040E00010400BF1010BBBF1010F08BF5FEA17078E
:1040F00022BF12F1010211F101014FF0004143F121
:10410000000300F0004043EA00007047F9D357086D
:10411000DAE746EA064613F1400F4FEA16461FDD7E
:1041200013F1200FDFBF16430A46002120335B4204
:10413000C8D0C3F1200746EA064602FA07F74FEA5D
:10414000164646EA0706C3F1200722FA03F201FAEF
:1041500007F721FA03F14FF0000342EA0702B1E743
:1041600046EA020646EA06464FEA164646EA0106CF
:10417000BCBF46EA0646360C4FF000034FF0000283
:104180004FF000019EE72DE9C048934630B491E816
:10419000380007C831EA400C48BF34EA430C03D565
:1041A000FFF7F2FDFFF78CFFF0BCBDE800882DE9BA
:1041B000C048934630B491E8380007C810F0804FEB
:1041C00008BF13F0804F03D100F005F8FFF778FF28
:1041D000F0BCBDE8008820F07F4780EA030023F0B0
:1041E0007F4C07EB0C03A3F57C5300F00040A3F1D8
:1041F000FE0392F0000F00F0B38095F0000F00F086
:1042000077802DE901494FEA11404FEA144621EA2F
:10421000004800FB06FC24EA064708FB06F607FBFD
:1042200008F800FB07F718EB06484CEB164C4FEA72
:10423000124B18EB07484FEA15464CEB174022EAA1
:104240000B4E0BFB06FC25EA06470EFB06F607FBAA
:104250000EFE0BFB07F71EEB064E4CEB164C4FF019
:1042600000061EEB074E4CEB174B18EB0B0840F10A
:10427000000018EB0E0B58EB000840F100008F1AFD
:104280004FF000013CBFC943661B14BFB5EB040CE3
:1042900000213CBFC943F61B4FEA17444EEA8E0E7D
:1042A00027EA04454FEA1C4704FB07622CEA074C47
:1042B00005FB07F70CFB05F604FB0CFC16EB0746A9
:1042C00042EB174216EB0C4642EB1C421BEB060678
:1042D00058EB0202414146EA9E0601D5BDE801893C
:1042E000B619524141EB0101A3F10103BDE8018977
:1042F0004FEA14454FEA114724EA054621EA074CE4
:1043000005FB07F406FB07F70CFB06F105FB0CFCAD
:1043100011EB074144EB17444FEA124711EB0C41F4
:1043200044EB1C4422EA074C05FB07F206FB07F7A7
:104330000CFB06F605FB0CFC16EB074642EB17429E
:1043400016EB0C4642EB1C456A1854F1000148BFBD
:104350007047B619524141EB0101A3F101037047C7
:1043600095F0000F37D04FEA11424FEA144721EA87
:10437000024624EA074C02FB07F106FB07F70CFB99
:1043800006F402FB0CFC14EB074441EB17414FEA27
:10439000154714EB0C4441EB1C4125EA074C02FB8A
:1043A00007F506FB07F70CFB06F602FB0CFC16EB09
:1043B000074645EB174516EB0C4645EB1C42121918
:1043C00051F1000148BF7047B619524141EB01015C
:1043D000A3F1010370474FEA14454FEA114724EA5D
:1043E000054621EA074C05FB07F106FB07F70CFB26
:1043F00006F24FF0000605FB0CFC12EB074241EB06
:10440000174112EB0C4251EB1C4148BF7047921808
:1044100041EB0101A3F101037047490050EAC120BB
:1044200018BF04204A0D18BF40F0010040F2FF728F
:10443000B2EB515F08BF40F00200012808BF052021
:10444000704730380A2801D2012070470020704799
:1044500010B500290AD00878002807D0054878440C
:10446000FFF7E0FB002801D0002010BD024878448F
:1044700010BD00004E0100004601000010B50029EB
:104480000AD00878002807D005487844FFF7CAFB0F
:10449000002801D0002010BD0248784410BD000063
:1044A0003E01000036010000FFF75EB9040000087D
:1044B00000000000000000020001000010000000E9
:1044C0000000000000000000303132333435363750
:1044D0003839414243444546403058003031323348
:1044E0003435363738396162636465664030780048
:1044F00002400000000000A0000000000540000095
:10450000000000C8000000000C4000000000409CBB
:1045100000000000194000000020BCBE00000000A8
:1045200034400000BFC91B8E00000004B5400000ED
:10453000504BCFD06607E2CF010000006C41000075
:104540003E8251AADFEEA73401000000D9420000EC
:10455000DCB5A0E23A301F97FFFFFFFFB445000033
:10456000FD25A0C8E9A3C14FFFFFFFFFFF3F0000EB
:104570000000008000000000FF3F000000000080FD
:10458000000000005443500055445000D846000835
:104590000000002044000000280100081C4700081B
:1045A000440000202C0F0000440100081C00000003
:1045B00043000000F8FFFFFF0C0000000E000000A9
:1045C0000F0000002E00000010010000430000005A
:1045D000F8FFFFFF00404040404040404040414124
:1045E00041414140404040404040404040404040C8
:1045F0004040404040050202020202020202020262
:10460000020202020220202020202020202020025E
:1046100002020202020290909090909010101010EE
:10462000101010101010101010101010101010108A
:10463000020202020202888888888888080808081E
:1046400008080808080808080808080808080808EA
:104650000202020240000000000000000000000012
:10466000000000000000000000000000000000004A
:10467000000000000000000000000000000000003A
:10468000000000000000000000000000000000002A
:10469000000000000000000000000000000000001A
:1046A000000000000000000000000000000000000A
:1046B00000000000000000000000000000000000FA
:1046C00000000000000000000000000000000000EA
:1046D000000000000000000000A24A0400000000EA
:1046E00000000000010203040607080901000000A1
:1046F00000000000000000000000000002040608A6
:104700000000000001020304010203040607080977
:0C471000000000008445000888450008F7
:04000005080000ED02
:00000001FF
